{
	"contracts/Inheritance.sol": {
		"Inheritance": {
			"abi": [
				{
					"inputs": [
						{
							"internalType": "string",
							"name": "name",
							"type": "string"
						}
					],
					"name": "Number",
					"outputs": [
						{
							"internalType": "uint256",
							"name": "",
							"type": "uint256"
						}
					],
					"stateMutability": "view",
					"type": "function"
				},
				{
					"inputs": [
						{
							"internalType": "string",
							"name": "_name",
							"type": "string"
						},
						{
							"internalType": "uint256",
							"name": "_favouriteNumber",
							"type": "uint256"
						}
					],
					"name": "addperson",
					"outputs": [],
					"stateMutability": "nonpayable",
					"type": "function"
				},
				{
					"inputs": [],
					"name": "favouriteNumber",
					"outputs": [
						{
							"internalType": "uint256",
							"name": "",
							"type": "uint256"
						}
					],
					"stateMutability": "view",
					"type": "function"
				},
				{
					"inputs": [
						{
							"internalType": "string",
							"name": "Name",
							"type": "string"
						}
					],
					"name": "getNumByName",
					"outputs": [
						{
							"internalType": "uint256",
							"name": "",
							"type": "uint256"
						}
					],
					"stateMutability": "view",
					"type": "function"
				},
				{
					"inputs": [
						{
							"internalType": "uint256",
							"name": "",
							"type": "uint256"
						}
					],
					"name": "person",
					"outputs": [
						{
							"internalType": "uint256",
							"name": "favouriteNumber",
							"type": "uint256"
						},
						{
							"internalType": "string",
							"name": "Name",
							"type": "string"
						}
					],
					"stateMutability": "view",
					"type": "function"
				},
				{
					"inputs": [],
					"name": "retrieve",
					"outputs": [
						{
							"internalType": "uint256",
							"name": "",
							"type": "uint256"
						}
					],
					"stateMutability": "view",
					"type": "function"
				},
				{
					"inputs": [
						{
							"internalType": "string",
							"name": "name",
							"type": "string"
						},
						{
							"internalType": "uint256",
							"name": "Number",
							"type": "uint256"
						}
					],
					"name": "setNames",
					"outputs": [],
					"stateMutability": "nonpayable",
					"type": "function"
				},
				{
					"inputs": [
						{
							"internalType": "uint256",
							"name": "Number",
							"type": "uint256"
						}
					],
					"name": "store",
					"outputs": [],
					"stateMutability": "nonpayable",
					"type": "function"
				}
			],
			"devdoc": {
				"kind": "dev",
				"methods": {},
				"version": 1
			},
			"evm": {
				"assembly": "    /* \"contracts/Inheritance.sol\":77:404  contract Inheritance is simpleStorage{... */\n  mstore(0x40, 0x80)\n  callvalue\n  dup1\n  iszero\n  tag_1\n  jumpi\n  0x00\n  dup1\n  revert\ntag_1:\n  pop\n  dataSize(sub_0)\n  dup1\n  dataOffset(sub_0)\n  0x00\n  codecopy\n  0x00\n  return\nstop\n\nsub_0: assembly {\n        /* \"contracts/Inheritance.sol\":77:404  contract Inheritance is simpleStorage{... */\n      mstore(0x40, 0x80)\n      callvalue\n      dup1\n      iszero\n      tag_1\n      jumpi\n      0x00\n      dup1\n      revert\n    tag_1:\n      pop\n      jumpi(tag_2, lt(calldatasize, 0x04))\n      shr(0xe0, calldataload(0x00))\n      dup1\n      0x43ede4ae\n      gt\n      tag_11\n      jumpi\n      dup1\n      0x43ede4ae\n      eq\n      tag_7\n      jumpi\n      dup1\n      0x6057361d\n      eq\n      tag_8\n      jumpi\n      dup1\n      0xe1b3202a\n      eq\n      tag_9\n      jumpi\n      dup1\n      0xe80521e1\n      eq\n      tag_10\n      jumpi\n      jump(tag_2)\n    tag_11:\n      dup1\n      0x092a1820\n      eq\n      tag_3\n      jumpi\n      dup1\n      0x2595d8aa\n      eq\n      tag_4\n      jumpi\n      dup1\n      0x282af2d7\n      eq\n      tag_5\n      jumpi\n      dup1\n      0x2e64cec1\n      eq\n      tag_6\n      jumpi\n    tag_2:\n      0x00\n      dup1\n      revert\n        /* \"contracts/Day2.sol\":355:377  People[] public person */\n    tag_3:\n      tag_12\n      0x04\n      dup1\n      calldatasize\n      sub\n      dup2\n      add\n      swap1\n      tag_13\n      swap2\n      swap1\n      tag_14\n      jump\t// in\n    tag_13:\n      tag_15\n      jump\t// in\n    tag_12:\n      mload(0x40)\n      tag_16\n      swap3\n      swap2\n      swap1\n      tag_17\n      jump\t// in\n    tag_16:\n      mload(0x40)\n      dup1\n      swap2\n      sub\n      swap1\n      return\n        /* \"contracts/Inheritance.sol\":152:232  function setNames(string memory name,uint Number)public{... */\n    tag_4:\n      tag_18\n      0x04\n      dup1\n      calldatasize\n      sub\n      dup2\n      add\n      swap1\n      tag_19\n      swap2\n      swap1\n      tag_20\n      jump\t// in\n    tag_19:\n      tag_21\n      jump\t// in\n    tag_18:\n      stop\n        /* \"contracts/Day2.sol\":231:274  mapping(string name=>uint256) public Number */\n    tag_5:\n      tag_22\n      0x04\n      dup1\n      calldatasize\n      sub\n      dup2\n      add\n      swap1\n      tag_23\n      swap2\n      swap1\n      tag_24\n      jump\t// in\n    tag_23:\n      tag_25\n      jump\t// in\n    tag_22:\n      mload(0x40)\n      tag_26\n      swap2\n      swap1\n      tag_27\n      jump\t// in\n    tag_26:\n      mload(0x40)\n      dup1\n      swap2\n      sub\n      swap1\n      return\n        /* \"contracts/Day2.sol\":505:580  function retrieve()public view returns(uint){... */\n    tag_6:\n      tag_28\n      tag_29\n      jump\t// in\n    tag_28:\n      mload(0x40)\n      tag_30\n      swap2\n      swap1\n      tag_27\n      jump\t// in\n    tag_30:\n      mload(0x40)\n      dup1\n      swap2\n      sub\n      swap1\n      return\n        /* \"contracts/Day2.sol\":379:409  uint256 public favouriteNumber */\n    tag_7:\n      tag_31\n      tag_32\n      jump\t// in\n    tag_31:\n      mload(0x40)\n      tag_33\n      swap2\n      swap1\n      tag_27\n      jump\t// in\n    tag_33:\n      mload(0x40)\n      dup1\n      swap2\n      sub\n      swap1\n      return\n        /* \"contracts/Inheritance.sol\":325:401  function store(uint Number) public override{... */\n    tag_8:\n      tag_34\n      0x04\n      dup1\n      calldatasize\n      sub\n      dup2\n      add\n      swap1\n      tag_35\n      swap2\n      swap1\n      tag_14\n      jump\t// in\n    tag_35:\n      tag_36\n      jump\t// in\n    tag_34:\n      stop\n        /* \"contracts/Day2.sol\":581:731  function addperson(string memory _name,uint _favouriteNumber) public {... */\n    tag_9:\n      tag_37\n      0x04\n      dup1\n      calldatasize\n      sub\n      dup2\n      add\n      swap1\n      tag_38\n      swap2\n      swap1\n      tag_20\n      jump\t// in\n    tag_38:\n      tag_39\n      jump\t// in\n    tag_37:\n      stop\n        /* \"contracts/Inheritance.sol\":233:324  function getNumByName(string memory Name)public view returns(uint){... */\n    tag_10:\n      tag_40\n      0x04\n      dup1\n      calldatasize\n      sub\n      dup2\n      add\n      swap1\n      tag_41\n      swap2\n      swap1\n      tag_24\n      jump\t// in\n    tag_41:\n      tag_42\n      jump\t// in\n    tag_40:\n      mload(0x40)\n      tag_43\n      swap2\n      swap1\n      tag_27\n      jump\t// in\n    tag_43:\n      mload(0x40)\n      dup1\n      swap2\n      sub\n      swap1\n      return\n        /* \"contracts/Day2.sol\":355:377  People[] public person */\n    tag_15:\n      0x01\n      dup2\n      dup2\n      sload\n      dup2\n      lt\n      tag_44\n      jumpi\n      0x00\n      dup1\n      revert\n    tag_44:\n      swap1\n      0x00\n      mstore\n      keccak256(0x00, 0x20)\n      swap1\n      0x02\n      mul\n      add\n      0x00\n      swap2\n      pop\n      swap1\n      pop\n      dup1\n      0x00\n      add\n      sload\n      swap1\n      dup1\n      0x01\n      add\n      dup1\n      sload\n      tag_46\n      swap1\n      tag_47\n      jump\t// in\n    tag_46:\n      dup1\n      0x1f\n      add\n      0x20\n      dup1\n      swap2\n      div\n      mul\n      0x20\n      add\n      mload(0x40)\n      swap1\n      dup2\n      add\n      0x40\n      mstore\n      dup1\n      swap3\n      swap2\n      swap1\n      dup2\n      dup2\n      mstore\n      0x20\n      add\n      dup3\n      dup1\n      sload\n      tag_48\n      swap1\n      tag_47\n      jump\t// in\n    tag_48:\n      dup1\n      iszero\n      tag_49\n      jumpi\n      dup1\n      0x1f\n      lt\n      tag_50\n      jumpi\n      0x0100\n      dup1\n      dup4\n      sload\n      div\n      mul\n      dup4\n      mstore\n      swap2\n      0x20\n      add\n      swap2\n      jump(tag_49)\n    tag_50:\n      dup3\n      add\n      swap2\n      swap1\n      0x00\n      mstore\n      keccak256(0x00, 0x20)\n      swap1\n    tag_51:\n      dup2\n      sload\n      dup2\n      mstore\n      swap1\n      0x01\n      add\n      swap1\n      0x20\n      add\n      dup1\n      dup4\n      gt\n      tag_51\n      jumpi\n      dup3\n      swap1\n      sub\n      0x1f\n      and\n      dup3\n      add\n      swap2\n    tag_49:\n      pop\n      pop\n      pop\n      pop\n      pop\n      swap1\n      pop\n      dup3\n      jump\t// out\n        /* \"contracts/Inheritance.sol\":152:232  function setNames(string memory name,uint Number)public{... */\n    tag_21:\n        /* \"contracts/Inheritance.sol\":223:229  Number */\n      dup1\n        /* \"contracts/Inheritance.sol\":209:216  Persons */\n      0x03\n        /* \"contracts/Inheritance.sol\":217:221  name */\n      dup4\n        /* \"contracts/Inheritance.sol\":209:222  Persons[name] */\n      mload(0x40)\n      tag_53\n      swap2\n      swap1\n      tag_54\n      jump\t// in\n    tag_53:\n      swap1\n      dup2\n      mstore\n      0x20\n      add\n      mload(0x40)\n      dup1\n      swap2\n      sub\n      swap1\n      keccak256\n        /* \"contracts/Inheritance.sol\":209:229  Persons[name]=Number */\n      dup2\n      swap1\n      sstore\n      pop\n        /* \"contracts/Inheritance.sol\":152:232  function setNames(string memory name,uint Number)public{... */\n      pop\n      pop\n      jump\t// out\n        /* \"contracts/Day2.sol\":231:274  mapping(string name=>uint256) public Number */\n    tag_25:\n      0x00\n      dup2\n      dup1\n      mload\n      0x20\n      dup2\n      add\n      dup3\n      add\n      dup1\n      mload\n      dup5\n      dup3\n      mstore\n      0x20\n      dup4\n      add\n      0x20\n      dup6\n      add\n      keccak256\n      dup2\n      dup4\n      mstore\n      dup1\n      swap6\n      pop\n      pop\n      pop\n      pop\n      pop\n      pop\n      0x00\n      swap2\n      pop\n      swap1\n      pop\n      sload\n      dup2\n      jump\t// out\n        /* \"contracts/Day2.sol\":505:580  function retrieve()public view returns(uint){... */\n    tag_29:\n        /* \"contracts/Day2.sol\":544:548  uint */\n      0x00\n        /* \"contracts/Day2.sol\":562:577  favouriteNumber */\n      sload(0x02)\n        /* \"contracts/Day2.sol\":555:577  return favouriteNumber */\n      swap1\n      pop\n        /* \"contracts/Day2.sol\":505:580  function retrieve()public view returns(uint){... */\n      swap1\n      jump\t// out\n        /* \"contracts/Day2.sol\":379:409  uint256 public favouriteNumber */\n    tag_32:\n      sload(0x02)\n      dup2\n      jump\t// out\n        /* \"contracts/Inheritance.sol\":325:401  function store(uint Number) public override{... */\n    tag_36:\n        /* \"contracts/Inheritance.sol\":397:398  5 */\n      0x05\n        /* \"contracts/Inheritance.sol\":390:396  Number */\n      dup2\n        /* \"contracts/Inheritance.sol\":390:398  Number+5 */\n      tag_57\n      swap2\n      swap1\n      tag_58\n      jump\t// in\n    tag_57:\n        /* \"contracts/Inheritance.sol\":374:389  favouriteNumber */\n      0x02\n        /* \"contracts/Inheritance.sol\":374:398  favouriteNumber=Number+5 */\n      dup2\n      swap1\n      sstore\n      pop\n        /* \"contracts/Inheritance.sol\":325:401  function store(uint Number) public override{... */\n      pop\n      jump\t// out\n        /* \"contracts/Day2.sol\":581:731  function addperson(string memory _name,uint _favouriteNumber) public {... */\n    tag_39:\n        /* \"contracts/Day2.sol\":652:658  person */\n      0x01\n        /* \"contracts/Day2.sol\":664:695  People(_favouriteNumber, _name) */\n      mload(0x40)\n      dup1\n      0x40\n      add\n      0x40\n      mstore\n      dup1\n        /* \"contracts/Day2.sol\":671:687  _favouriteNumber */\n      dup4\n        /* \"contracts/Day2.sol\":664:695  People(_favouriteNumber, _name) */\n      dup2\n      mstore\n      0x20\n      add\n        /* \"contracts/Day2.sol\":689:694  _name */\n      dup5\n        /* \"contracts/Day2.sol\":664:695  People(_favouriteNumber, _name) */\n      dup2\n      mstore\n      pop\n        /* \"contracts/Day2.sol\":652:696  person.push(People(_favouriteNumber, _name)) */\n      swap1\n      dup1\n      0x01\n      dup2\n      sload\n      add\n      dup1\n      dup3\n      sstore\n      dup1\n      swap2\n      pop\n      pop\n      0x01\n      swap1\n      sub\n      swap1\n      0x00\n      mstore\n      keccak256(0x00, 0x20)\n      swap1\n      0x02\n      mul\n      add\n      0x00\n      swap1\n      swap2\n      swap1\n      swap2\n      swap1\n      swap2\n      pop\n      0x00\n      dup3\n      add\n      mload\n      dup2\n      0x00\n      add\n      sstore\n      0x20\n      dup3\n      add\n      mload\n      dup2\n      0x01\n      add\n      swap1\n      dup2\n      tag_61\n      swap2\n      swap1\n      tag_62\n      jump\t// in\n    tag_61:\n      pop\n      pop\n      pop\n        /* \"contracts/Day2.sol\":712:728  _favouriteNumber */\n      dup1\n        /* \"contracts/Day2.sol\":698:704  Number */\n      0x00\n        /* \"contracts/Day2.sol\":705:710  _name */\n      dup4\n        /* \"contracts/Day2.sol\":698:711  Number[_name] */\n      mload(0x40)\n      tag_63\n      swap2\n      swap1\n      tag_54\n      jump\t// in\n    tag_63:\n      swap1\n      dup2\n      mstore\n      0x20\n      add\n      mload(0x40)\n      dup1\n      swap2\n      sub\n      swap1\n      keccak256\n        /* \"contracts/Day2.sol\":698:728  Number[_name]=_favouriteNumber */\n      dup2\n      swap1\n      sstore\n      pop\n        /* \"contracts/Day2.sol\":581:731  function addperson(string memory _name,uint _favouriteNumber) public {... */\n      pop\n      pop\n      jump\t// out\n        /* \"contracts/Inheritance.sol\":233:324  function getNumByName(string memory Name)public view returns(uint){... */\n    tag_42:\n        /* \"contracts/Inheritance.sol\":294:298  uint */\n      0x00\n        /* \"contracts/Inheritance.sol\":308:315  Persons */\n      0x03\n        /* \"contracts/Inheritance.sol\":316:320  Name */\n      dup3\n        /* \"contracts/Inheritance.sol\":308:321  Persons[Name] */\n      mload(0x40)\n      tag_65\n      swap2\n      swap1\n      tag_54\n      jump\t// in\n    tag_65:\n      swap1\n      dup2\n      mstore\n      0x20\n      add\n      mload(0x40)\n      dup1\n      swap2\n      sub\n      swap1\n      keccak256\n      sload\n        /* \"contracts/Inheritance.sol\":301:321  return Persons[Name] */\n      swap1\n      pop\n        /* \"contracts/Inheritance.sol\":233:324  function getNumByName(string memory Name)public view returns(uint){... */\n      swap2\n      swap1\n      pop\n      jump\t// out\n        /* \"#utility.yul\":7:82   */\n    tag_66:\n        /* \"#utility.yul\":40:46   */\n      0x00\n        /* \"#utility.yul\":73:75   */\n      0x40\n        /* \"#utility.yul\":67:76   */\n      mload\n        /* \"#utility.yul\":57:76   */\n      swap1\n      pop\n        /* \"#utility.yul\":7:82   */\n      swap1\n      jump\t// out\n        /* \"#utility.yul\":88:205   */\n    tag_67:\n        /* \"#utility.yul\":197:198   */\n      0x00\n        /* \"#utility.yul\":194:195   */\n      dup1\n        /* \"#utility.yul\":187:199   */\n      revert\n        /* \"#utility.yul\":211:328   */\n    tag_68:\n        /* \"#utility.yul\":320:321   */\n      0x00\n        /* \"#utility.yul\":317:318   */\n      dup1\n        /* \"#utility.yul\":310:322   */\n      revert\n        /* \"#utility.yul\":334:411   */\n    tag_69:\n        /* \"#utility.yul\":371:378   */\n      0x00\n        /* \"#utility.yul\":400:405   */\n      dup2\n        /* \"#utility.yul\":389:405   */\n      swap1\n      pop\n        /* \"#utility.yul\":334:411   */\n      swap2\n      swap1\n      pop\n      jump\t// out\n        /* \"#utility.yul\":417:539   */\n    tag_70:\n        /* \"#utility.yul\":490:514   */\n      tag_112\n        /* \"#utility.yul\":508:513   */\n      dup2\n        /* \"#utility.yul\":490:514   */\n      tag_69\n      jump\t// in\n    tag_112:\n        /* \"#utility.yul\":483:488   */\n      dup2\n        /* \"#utility.yul\":480:515   */\n      eq\n        /* \"#utility.yul\":470:533   */\n      tag_113\n      jumpi\n        /* \"#utility.yul\":529:530   */\n      0x00\n        /* \"#utility.yul\":526:527   */\n      dup1\n        /* \"#utility.yul\":519:531   */\n      revert\n        /* \"#utility.yul\":470:533   */\n    tag_113:\n        /* \"#utility.yul\":417:539   */\n      pop\n      jump\t// out\n        /* \"#utility.yul\":545:684   */\n    tag_71:\n        /* \"#utility.yul\":591:596   */\n      0x00\n        /* \"#utility.yul\":629:635   */\n      dup2\n        /* \"#utility.yul\":616:636   */\n      calldataload\n        /* \"#utility.yul\":607:636   */\n      swap1\n      pop\n        /* \"#utility.yul\":645:678   */\n      tag_115\n        /* \"#utility.yul\":672:677   */\n      dup2\n        /* \"#utility.yul\":645:678   */\n      tag_70\n      jump\t// in\n    tag_115:\n        /* \"#utility.yul\":545:684   */\n      swap3\n      swap2\n      pop\n      pop\n      jump\t// out\n        /* \"#utility.yul\":690:1019   */\n    tag_14:\n        /* \"#utility.yul\":749:755   */\n      0x00\n        /* \"#utility.yul\":798:800   */\n      0x20\n        /* \"#utility.yul\":786:795   */\n      dup3\n        /* \"#utility.yul\":777:784   */\n      dup5\n        /* \"#utility.yul\":773:796   */\n      sub\n        /* \"#utility.yul\":769:801   */\n      slt\n        /* \"#utility.yul\":766:885   */\n      iszero\n      tag_117\n      jumpi\n        /* \"#utility.yul\":804:883   */\n      tag_118\n      tag_67\n      jump\t// in\n    tag_118:\n        /* \"#utility.yul\":766:885   */\n    tag_117:\n        /* \"#utility.yul\":924:925   */\n      0x00\n        /* \"#utility.yul\":949:1002   */\n      tag_119\n        /* \"#utility.yul\":994:1001   */\n      dup5\n        /* \"#utility.yul\":985:991   */\n      dup3\n        /* \"#utility.yul\":974:983   */\n      dup6\n        /* \"#utility.yul\":970:992   */\n      add\n        /* \"#utility.yul\":949:1002   */\n      tag_71\n      jump\t// in\n    tag_119:\n        /* \"#utility.yul\":939:1002   */\n      swap2\n      pop\n        /* \"#utility.yul\":895:1012   */\n      pop\n        /* \"#utility.yul\":690:1019   */\n      swap3\n      swap2\n      pop\n      pop\n      jump\t// out\n        /* \"#utility.yul\":1025:1143   */\n    tag_72:\n        /* \"#utility.yul\":1112:1136   */\n      tag_121\n        /* \"#utility.yul\":1130:1135   */\n      dup2\n        /* \"#utility.yul\":1112:1136   */\n      tag_69\n      jump\t// in\n    tag_121:\n        /* \"#utility.yul\":1107:1110   */\n      dup3\n        /* \"#utility.yul\":1100:1137   */\n      mstore\n        /* \"#utility.yul\":1025:1143   */\n      pop\n      pop\n      jump\t// out\n        /* \"#utility.yul\":1149:1248   */\n    tag_73:\n        /* \"#utility.yul\":1201:1207   */\n      0x00\n        /* \"#utility.yul\":1235:1240   */\n      dup2\n        /* \"#utility.yul\":1229:1241   */\n      mload\n        /* \"#utility.yul\":1219:1241   */\n      swap1\n      pop\n        /* \"#utility.yul\":1149:1248   */\n      swap2\n      swap1\n      pop\n      jump\t// out\n        /* \"#utility.yul\":1254:1423   */\n    tag_74:\n        /* \"#utility.yul\":1338:1349   */\n      0x00\n        /* \"#utility.yul\":1372:1378   */\n      dup3\n        /* \"#utility.yul\":1367:1370   */\n      dup3\n        /* \"#utility.yul\":1360:1379   */\n      mstore\n        /* \"#utility.yul\":1412:1416   */\n      0x20\n        /* \"#utility.yul\":1407:1410   */\n      dup3\n        /* \"#utility.yul\":1403:1417   */\n      add\n        /* \"#utility.yul\":1388:1417   */\n      swap1\n      pop\n        /* \"#utility.yul\":1254:1423   */\n      swap3\n      swap2\n      pop\n      pop\n      jump\t// out\n        /* \"#utility.yul\":1429:1675   */\n    tag_75:\n        /* \"#utility.yul\":1510:1511   */\n      0x00\n        /* \"#utility.yul\":1520:1633   */\n    tag_125:\n        /* \"#utility.yul\":1534:1540   */\n      dup4\n        /* \"#utility.yul\":1531:1532   */\n      dup2\n        /* \"#utility.yul\":1528:1541   */\n      lt\n        /* \"#utility.yul\":1520:1633   */\n      iszero\n      tag_127\n      jumpi\n        /* \"#utility.yul\":1619:1620   */\n      dup1\n        /* \"#utility.yul\":1614:1617   */\n      dup3\n        /* \"#utility.yul\":1610:1621   */\n      add\n        /* \"#utility.yul\":1604:1622   */\n      mload\n        /* \"#utility.yul\":1600:1601   */\n      dup2\n        /* \"#utility.yul\":1595:1598   */\n      dup5\n        /* \"#utility.yul\":1591:1602   */\n      add\n        /* \"#utility.yul\":1584:1623   */\n      mstore\n        /* \"#utility.yul\":1556:1558   */\n      0x20\n        /* \"#utility.yul\":1553:1554   */\n      dup2\n        /* \"#utility.yul\":1549:1559   */\n      add\n        /* \"#utility.yul\":1544:1559   */\n      swap1\n      pop\n        /* \"#utility.yul\":1520:1633   */\n      jump(tag_125)\n    tag_127:\n        /* \"#utility.yul\":1667:1668   */\n      0x00\n        /* \"#utility.yul\":1658:1664   */\n      dup5\n        /* \"#utility.yul\":1653:1656   */\n      dup5\n        /* \"#utility.yul\":1649:1665   */\n      add\n        /* \"#utility.yul\":1642:1669   */\n      mstore\n        /* \"#utility.yul\":1491:1675   */\n      pop\n        /* \"#utility.yul\":1429:1675   */\n      pop\n      pop\n      pop\n      jump\t// out\n        /* \"#utility.yul\":1681:1783   */\n    tag_76:\n        /* \"#utility.yul\":1722:1728   */\n      0x00\n        /* \"#utility.yul\":1773:1775   */\n      0x1f\n        /* \"#utility.yul\":1769:1776   */\n      not\n        /* \"#utility.yul\":1764:1766   */\n      0x1f\n        /* \"#utility.yul\":1757:1762   */\n      dup4\n        /* \"#utility.yul\":1753:1767   */\n      add\n        /* \"#utility.yul\":1749:1777   */\n      and\n        /* \"#utility.yul\":1739:1777   */\n      swap1\n      pop\n        /* \"#utility.yul\":1681:1783   */\n      swap2\n      swap1\n      pop\n      jump\t// out\n        /* \"#utility.yul\":1789:2166   */\n    tag_77:\n        /* \"#utility.yul\":1877:1880   */\n      0x00\n        /* \"#utility.yul\":1905:1944   */\n      tag_130\n        /* \"#utility.yul\":1938:1943   */\n      dup3\n        /* \"#utility.yul\":1905:1944   */\n      tag_73\n      jump\t// in\n    tag_130:\n        /* \"#utility.yul\":1960:2031   */\n      tag_131\n        /* \"#utility.yul\":2024:2030   */\n      dup2\n        /* \"#utility.yul\":2019:2022   */\n      dup6\n        /* \"#utility.yul\":1960:2031   */\n      tag_74\n      jump\t// in\n    tag_131:\n        /* \"#utility.yul\":1953:2031   */\n      swap4\n      pop\n        /* \"#utility.yul\":2040:2105   */\n      tag_132\n        /* \"#utility.yul\":2098:2104   */\n      dup2\n        /* \"#utility.yul\":2093:2096   */\n      dup6\n        /* \"#utility.yul\":2086:2090   */\n      0x20\n        /* \"#utility.yul\":2079:2084   */\n      dup7\n        /* \"#utility.yul\":2075:2091   */\n      add\n        /* \"#utility.yul\":2040:2105   */\n      tag_75\n      jump\t// in\n    tag_132:\n        /* \"#utility.yul\":2130:2159   */\n      tag_133\n        /* \"#utility.yul\":2152:2158   */\n      dup2\n        /* \"#utility.yul\":2130:2159   */\n      tag_76\n      jump\t// in\n    tag_133:\n        /* \"#utility.yul\":2125:2128   */\n      dup5\n        /* \"#utility.yul\":2121:2160   */\n      add\n        /* \"#utility.yul\":2114:2160   */\n      swap2\n      pop\n        /* \"#utility.yul\":1881:2166   */\n      pop\n        /* \"#utility.yul\":1789:2166   */\n      swap3\n      swap2\n      pop\n      pop\n      jump\t// out\n        /* \"#utility.yul\":2172:2595   */\n    tag_17:\n        /* \"#utility.yul\":2313:2317   */\n      0x00\n        /* \"#utility.yul\":2351:2353   */\n      0x40\n        /* \"#utility.yul\":2340:2349   */\n      dup3\n        /* \"#utility.yul\":2336:2354   */\n      add\n        /* \"#utility.yul\":2328:2354   */\n      swap1\n      pop\n        /* \"#utility.yul\":2364:2435   */\n      tag_135\n        /* \"#utility.yul\":2432:2433   */\n      0x00\n        /* \"#utility.yul\":2421:2430   */\n      dup4\n        /* \"#utility.yul\":2417:2434   */\n      add\n        /* \"#utility.yul\":2408:2414   */\n      dup6\n        /* \"#utility.yul\":2364:2435   */\n      tag_72\n      jump\t// in\n    tag_135:\n        /* \"#utility.yul\":2482:2491   */\n      dup2\n        /* \"#utility.yul\":2476:2480   */\n      dup2\n        /* \"#utility.yul\":2472:2492   */\n      sub\n        /* \"#utility.yul\":2467:2469   */\n      0x20\n        /* \"#utility.yul\":2456:2465   */\n      dup4\n        /* \"#utility.yul\":2452:2470   */\n      add\n        /* \"#utility.yul\":2445:2493   */\n      mstore\n        /* \"#utility.yul\":2510:2588   */\n      tag_136\n        /* \"#utility.yul\":2583:2587   */\n      dup2\n        /* \"#utility.yul\":2574:2580   */\n      dup5\n        /* \"#utility.yul\":2510:2588   */\n      tag_77\n      jump\t// in\n    tag_136:\n        /* \"#utility.yul\":2502:2588   */\n      swap1\n      pop\n        /* \"#utility.yul\":2172:2595   */\n      swap4\n      swap3\n      pop\n      pop\n      pop\n      jump\t// out\n        /* \"#utility.yul\":2601:2718   */\n    tag_78:\n        /* \"#utility.yul\":2710:2711   */\n      0x00\n        /* \"#utility.yul\":2707:2708   */\n      dup1\n        /* \"#utility.yul\":2700:2712   */\n      revert\n        /* \"#utility.yul\":2724:2841   */\n    tag_79:\n        /* \"#utility.yul\":2833:2834   */\n      0x00\n        /* \"#utility.yul\":2830:2831   */\n      dup1\n        /* \"#utility.yul\":2823:2835   */\n      revert\n        /* \"#utility.yul\":2847:3027   */\n    tag_80:\n        /* \"#utility.yul\":2895:2972   */\n      0x4e487b7100000000000000000000000000000000000000000000000000000000\n        /* \"#utility.yul\":2892:2893   */\n      0x00\n        /* \"#utility.yul\":2885:2973   */\n      mstore\n        /* \"#utility.yul\":2992:2996   */\n      0x41\n        /* \"#utility.yul\":2989:2990   */\n      0x04\n        /* \"#utility.yul\":2982:2997   */\n      mstore\n        /* \"#utility.yul\":3016:3020   */\n      0x24\n        /* \"#utility.yul\":3013:3014   */\n      0x00\n        /* \"#utility.yul\":3006:3021   */\n      revert\n        /* \"#utility.yul\":3033:3314   */\n    tag_81:\n        /* \"#utility.yul\":3116:3143   */\n      tag_141\n        /* \"#utility.yul\":3138:3142   */\n      dup3\n        /* \"#utility.yul\":3116:3143   */\n      tag_76\n      jump\t// in\n    tag_141:\n        /* \"#utility.yul\":3108:3114   */\n      dup2\n        /* \"#utility.yul\":3104:3144   */\n      add\n        /* \"#utility.yul\":3246:3252   */\n      dup2\n        /* \"#utility.yul\":3234:3244   */\n      dup2\n        /* \"#utility.yul\":3231:3253   */\n      lt\n        /* \"#utility.yul\":3210:3228   */\n      0xffffffffffffffff\n        /* \"#utility.yul\":3198:3208   */\n      dup3\n        /* \"#utility.yul\":3195:3229   */\n      gt\n        /* \"#utility.yul\":3192:3254   */\n      or\n        /* \"#utility.yul\":3189:3277   */\n      iszero\n      tag_142\n      jumpi\n        /* \"#utility.yul\":3257:3275   */\n      tag_143\n      tag_80\n      jump\t// in\n    tag_143:\n        /* \"#utility.yul\":3189:3277   */\n    tag_142:\n        /* \"#utility.yul\":3297:3307   */\n      dup1\n        /* \"#utility.yul\":3293:3295   */\n      0x40\n        /* \"#utility.yul\":3286:3308   */\n      mstore\n        /* \"#utility.yul\":3076:3314   */\n      pop\n        /* \"#utility.yul\":3033:3314   */\n      pop\n      pop\n      jump\t// out\n        /* \"#utility.yul\":3320:3449   */\n    tag_82:\n        /* \"#utility.yul\":3354:3360   */\n      0x00\n        /* \"#utility.yul\":3381:3401   */\n      tag_145\n      tag_66\n      jump\t// in\n    tag_145:\n        /* \"#utility.yul\":3371:3401   */\n      swap1\n      pop\n        /* \"#utility.yul\":3410:3443   */\n      tag_146\n        /* \"#utility.yul\":3438:3442   */\n      dup3\n        /* \"#utility.yul\":3430:3436   */\n      dup3\n        /* \"#utility.yul\":3410:3443   */\n      tag_81\n      jump\t// in\n    tag_146:\n        /* \"#utility.yul\":3320:3449   */\n      swap2\n      swap1\n      pop\n      jump\t// out\n        /* \"#utility.yul\":3455:3763   */\n    tag_83:\n        /* \"#utility.yul\":3517:3521   */\n      0x00\n        /* \"#utility.yul\":3607:3625   */\n      0xffffffffffffffff\n        /* \"#utility.yul\":3599:3605   */\n      dup3\n        /* \"#utility.yul\":3596:3626   */\n      gt\n        /* \"#utility.yul\":3593:3649   */\n      iszero\n      tag_148\n      jumpi\n        /* \"#utility.yul\":3629:3647   */\n      tag_149\n      tag_80\n      jump\t// in\n    tag_149:\n        /* \"#utility.yul\":3593:3649   */\n    tag_148:\n        /* \"#utility.yul\":3667:3696   */\n      tag_150\n        /* \"#utility.yul\":3689:3695   */\n      dup3\n        /* \"#utility.yul\":3667:3696   */\n      tag_76\n      jump\t// in\n    tag_150:\n        /* \"#utility.yul\":3659:3696   */\n      swap1\n      pop\n        /* \"#utility.yul\":3751:3755   */\n      0x20\n        /* \"#utility.yul\":3745:3749   */\n      dup2\n        /* \"#utility.yul\":3741:3756   */\n      add\n        /* \"#utility.yul\":3733:3756   */\n      swap1\n      pop\n        /* \"#utility.yul\":3455:3763   */\n      swap2\n      swap1\n      pop\n      jump\t// out\n        /* \"#utility.yul\":3769:3915   */\n    tag_84:\n        /* \"#utility.yul\":3866:3872   */\n      dup3\n        /* \"#utility.yul\":3861:3864   */\n      dup2\n        /* \"#utility.yul\":3856:3859   */\n      dup4\n        /* \"#utility.yul\":3843:3873   */\n      calldatacopy\n        /* \"#utility.yul\":3907:3908   */\n      0x00\n        /* \"#utility.yul\":3898:3904   */\n      dup4\n        /* \"#utility.yul\":3893:3896   */\n      dup4\n        /* \"#utility.yul\":3889:3905   */\n      add\n        /* \"#utility.yul\":3882:3909   */\n      mstore\n        /* \"#utility.yul\":3769:3915   */\n      pop\n      pop\n      pop\n      jump\t// out\n        /* \"#utility.yul\":3921:4346   */\n    tag_85:\n        /* \"#utility.yul\":3999:4004   */\n      0x00\n        /* \"#utility.yul\":4024:4090   */\n      tag_153\n        /* \"#utility.yul\":4040:4089   */\n      tag_154\n        /* \"#utility.yul\":4082:4088   */\n      dup5\n        /* \"#utility.yul\":4040:4089   */\n      tag_83\n      jump\t// in\n    tag_154:\n        /* \"#utility.yul\":4024:4090   */\n      tag_82\n      jump\t// in\n    tag_153:\n        /* \"#utility.yul\":4015:4090   */\n      swap1\n      pop\n        /* \"#utility.yul\":4113:4119   */\n      dup3\n        /* \"#utility.yul\":4106:4111   */\n      dup2\n        /* \"#utility.yul\":4099:4120   */\n      mstore\n        /* \"#utility.yul\":4151:4155   */\n      0x20\n        /* \"#utility.yul\":4144:4149   */\n      dup2\n        /* \"#utility.yul\":4140:4156   */\n      add\n        /* \"#utility.yul\":4189:4192   */\n      dup5\n        /* \"#utility.yul\":4180:4186   */\n      dup5\n        /* \"#utility.yul\":4175:4178   */\n      dup5\n        /* \"#utility.yul\":4171:4187   */\n      add\n        /* \"#utility.yul\":4168:4193   */\n      gt\n        /* \"#utility.yul\":4165:4277   */\n      iszero\n      tag_155\n      jumpi\n        /* \"#utility.yul\":4196:4275   */\n      tag_156\n      tag_79\n      jump\t// in\n    tag_156:\n        /* \"#utility.yul\":4165:4277   */\n    tag_155:\n        /* \"#utility.yul\":4286:4340   */\n      tag_157\n        /* \"#utility.yul\":4333:4339   */\n      dup5\n        /* \"#utility.yul\":4328:4331   */\n      dup3\n        /* \"#utility.yul\":4323:4326   */\n      dup6\n        /* \"#utility.yul\":4286:4340   */\n      tag_84\n      jump\t// in\n    tag_157:\n        /* \"#utility.yul\":4005:4346   */\n      pop\n        /* \"#utility.yul\":3921:4346   */\n      swap4\n      swap3\n      pop\n      pop\n      pop\n      jump\t// out\n        /* \"#utility.yul\":4366:4706   */\n    tag_86:\n        /* \"#utility.yul\":4422:4427   */\n      0x00\n        /* \"#utility.yul\":4471:4474   */\n      dup3\n        /* \"#utility.yul\":4464:4468   */\n      0x1f\n        /* \"#utility.yul\":4456:4462   */\n      dup4\n        /* \"#utility.yul\":4452:4469   */\n      add\n        /* \"#utility.yul\":4448:4475   */\n      slt\n        /* \"#utility.yul\":4438:4560   */\n      tag_159\n      jumpi\n        /* \"#utility.yul\":4479:4558   */\n      tag_160\n      tag_78\n      jump\t// in\n    tag_160:\n        /* \"#utility.yul\":4438:4560   */\n    tag_159:\n        /* \"#utility.yul\":4596:4602   */\n      dup2\n        /* \"#utility.yul\":4583:4603   */\n      calldataload\n        /* \"#utility.yul\":4621:4700   */\n      tag_161\n        /* \"#utility.yul\":4696:4699   */\n      dup5\n        /* \"#utility.yul\":4688:4694   */\n      dup3\n        /* \"#utility.yul\":4681:4685   */\n      0x20\n        /* \"#utility.yul\":4673:4679   */\n      dup7\n        /* \"#utility.yul\":4669:4686   */\n      add\n        /* \"#utility.yul\":4621:4700   */\n      tag_85\n      jump\t// in\n    tag_161:\n        /* \"#utility.yul\":4612:4700   */\n      swap2\n      pop\n        /* \"#utility.yul\":4428:4706   */\n      pop\n        /* \"#utility.yul\":4366:4706   */\n      swap3\n      swap2\n      pop\n      pop\n      jump\t// out\n        /* \"#utility.yul\":4712:5366   */\n    tag_20:\n        /* \"#utility.yul\":4790:4796   */\n      0x00\n        /* \"#utility.yul\":4798:4804   */\n      dup1\n        /* \"#utility.yul\":4847:4849   */\n      0x40\n        /* \"#utility.yul\":4835:4844   */\n      dup4\n        /* \"#utility.yul\":4826:4833   */\n      dup6\n        /* \"#utility.yul\":4822:4845   */\n      sub\n        /* \"#utility.yul\":4818:4850   */\n      slt\n        /* \"#utility.yul\":4815:4934   */\n      iszero\n      tag_163\n      jumpi\n        /* \"#utility.yul\":4853:4932   */\n      tag_164\n      tag_67\n      jump\t// in\n    tag_164:\n        /* \"#utility.yul\":4815:4934   */\n    tag_163:\n        /* \"#utility.yul\":5001:5002   */\n      0x00\n        /* \"#utility.yul\":4990:4999   */\n      dup4\n        /* \"#utility.yul\":4986:5003   */\n      add\n        /* \"#utility.yul\":4973:5004   */\n      calldataload\n        /* \"#utility.yul\":5031:5049   */\n      0xffffffffffffffff\n        /* \"#utility.yul\":5023:5029   */\n      dup2\n        /* \"#utility.yul\":5020:5050   */\n      gt\n        /* \"#utility.yul\":5017:5134   */\n      iszero\n      tag_165\n      jumpi\n        /* \"#utility.yul\":5053:5132   */\n      tag_166\n      tag_68\n      jump\t// in\n    tag_166:\n        /* \"#utility.yul\":5017:5134   */\n    tag_165:\n        /* \"#utility.yul\":5158:5221   */\n      tag_167\n        /* \"#utility.yul\":5213:5220   */\n      dup6\n        /* \"#utility.yul\":5204:5210   */\n      dup3\n        /* \"#utility.yul\":5193:5202   */\n      dup7\n        /* \"#utility.yul\":5189:5211   */\n      add\n        /* \"#utility.yul\":5158:5221   */\n      tag_86\n      jump\t// in\n    tag_167:\n        /* \"#utility.yul\":5148:5221   */\n      swap3\n      pop\n        /* \"#utility.yul\":4944:5231   */\n      pop\n        /* \"#utility.yul\":5270:5272   */\n      0x20\n        /* \"#utility.yul\":5296:5349   */\n      tag_168\n        /* \"#utility.yul\":5341:5348   */\n      dup6\n        /* \"#utility.yul\":5332:5338   */\n      dup3\n        /* \"#utility.yul\":5321:5330   */\n      dup7\n        /* \"#utility.yul\":5317:5339   */\n      add\n        /* \"#utility.yul\":5296:5349   */\n      tag_71\n      jump\t// in\n    tag_168:\n        /* \"#utility.yul\":5286:5349   */\n      swap2\n      pop\n        /* \"#utility.yul\":5241:5359   */\n      pop\n        /* \"#utility.yul\":4712:5366   */\n      swap3\n      pop\n      swap3\n      swap1\n      pop\n      jump\t// out\n        /* \"#utility.yul\":5372:5881   */\n    tag_24:\n        /* \"#utility.yul\":5441:5447   */\n      0x00\n        /* \"#utility.yul\":5490:5492   */\n      0x20\n        /* \"#utility.yul\":5478:5487   */\n      dup3\n        /* \"#utility.yul\":5469:5476   */\n      dup5\n        /* \"#utility.yul\":5465:5488   */\n      sub\n        /* \"#utility.yul\":5461:5493   */\n      slt\n        /* \"#utility.yul\":5458:5577   */\n      iszero\n      tag_170\n      jumpi\n        /* \"#utility.yul\":5496:5575   */\n      tag_171\n      tag_67\n      jump\t// in\n    tag_171:\n        /* \"#utility.yul\":5458:5577   */\n    tag_170:\n        /* \"#utility.yul\":5644:5645   */\n      0x00\n        /* \"#utility.yul\":5633:5642   */\n      dup3\n        /* \"#utility.yul\":5629:5646   */\n      add\n        /* \"#utility.yul\":5616:5647   */\n      calldataload\n        /* \"#utility.yul\":5674:5692   */\n      0xffffffffffffffff\n        /* \"#utility.yul\":5666:5672   */\n      dup2\n        /* \"#utility.yul\":5663:5693   */\n      gt\n        /* \"#utility.yul\":5660:5777   */\n      iszero\n      tag_172\n      jumpi\n        /* \"#utility.yul\":5696:5775   */\n      tag_173\n      tag_68\n      jump\t// in\n    tag_173:\n        /* \"#utility.yul\":5660:5777   */\n    tag_172:\n        /* \"#utility.yul\":5801:5864   */\n      tag_174\n        /* \"#utility.yul\":5856:5863   */\n      dup5\n        /* \"#utility.yul\":5847:5853   */\n      dup3\n        /* \"#utility.yul\":5836:5845   */\n      dup6\n        /* \"#utility.yul\":5832:5854   */\n      add\n        /* \"#utility.yul\":5801:5864   */\n      tag_86\n      jump\t// in\n    tag_174:\n        /* \"#utility.yul\":5791:5864   */\n      swap2\n      pop\n        /* \"#utility.yul\":5587:5874   */\n      pop\n        /* \"#utility.yul\":5372:5881   */\n      swap3\n      swap2\n      pop\n      pop\n      jump\t// out\n        /* \"#utility.yul\":5887:6109   */\n    tag_27:\n        /* \"#utility.yul\":5980:5984   */\n      0x00\n        /* \"#utility.yul\":6018:6020   */\n      0x20\n        /* \"#utility.yul\":6007:6016   */\n      dup3\n        /* \"#utility.yul\":6003:6021   */\n      add\n        /* \"#utility.yul\":5995:6021   */\n      swap1\n      pop\n        /* \"#utility.yul\":6031:6102   */\n      tag_176\n        /* \"#utility.yul\":6099:6100   */\n      0x00\n        /* \"#utility.yul\":6088:6097   */\n      dup4\n        /* \"#utility.yul\":6084:6101   */\n      add\n        /* \"#utility.yul\":6075:6081   */\n      dup5\n        /* \"#utility.yul\":6031:6102   */\n      tag_72\n      jump\t// in\n    tag_176:\n        /* \"#utility.yul\":5887:6109   */\n      swap3\n      swap2\n      pop\n      pop\n      jump\t// out\n        /* \"#utility.yul\":6115:6295   */\n    tag_87:\n        /* \"#utility.yul\":6163:6240   */\n      0x4e487b7100000000000000000000000000000000000000000000000000000000\n        /* \"#utility.yul\":6160:6161   */\n      0x00\n        /* \"#utility.yul\":6153:6241   */\n      mstore\n        /* \"#utility.yul\":6260:6264   */\n      0x22\n        /* \"#utility.yul\":6257:6258   */\n      0x04\n        /* \"#utility.yul\":6250:6265   */\n      mstore\n        /* \"#utility.yul\":6284:6288   */\n      0x24\n        /* \"#utility.yul\":6281:6282   */\n      0x00\n        /* \"#utility.yul\":6274:6289   */\n      revert\n        /* \"#utility.yul\":6301:6621   */\n    tag_47:\n        /* \"#utility.yul\":6345:6351   */\n      0x00\n        /* \"#utility.yul\":6382:6383   */\n      0x02\n        /* \"#utility.yul\":6376:6380   */\n      dup3\n        /* \"#utility.yul\":6372:6384   */\n      div\n        /* \"#utility.yul\":6362:6384   */\n      swap1\n      pop\n        /* \"#utility.yul\":6429:6430   */\n      0x01\n        /* \"#utility.yul\":6423:6427   */\n      dup3\n        /* \"#utility.yul\":6419:6431   */\n      and\n        /* \"#utility.yul\":6450:6468   */\n      dup1\n        /* \"#utility.yul\":6440:6521   */\n      tag_179\n      jumpi\n        /* \"#utility.yul\":6506:6510   */\n      0x7f\n        /* \"#utility.yul\":6498:6504   */\n      dup3\n        /* \"#utility.yul\":6494:6511   */\n      and\n        /* \"#utility.yul\":6484:6511   */\n      swap2\n      pop\n        /* \"#utility.yul\":6440:6521   */\n    tag_179:\n        /* \"#utility.yul\":6568:6570   */\n      0x20\n        /* \"#utility.yul\":6560:6566   */\n      dup3\n        /* \"#utility.yul\":6557:6571   */\n      lt\n        /* \"#utility.yul\":6537:6555   */\n      dup2\n        /* \"#utility.yul\":6534:6572   */\n      sub\n        /* \"#utility.yul\":6531:6615   */\n      tag_180\n      jumpi\n        /* \"#utility.yul\":6587:6605   */\n      tag_181\n      tag_87\n      jump\t// in\n    tag_181:\n        /* \"#utility.yul\":6531:6615   */\n    tag_180:\n        /* \"#utility.yul\":6352:6621   */\n      pop\n        /* \"#utility.yul\":6301:6621   */\n      swap2\n      swap1\n      pop\n      jump\t// out\n        /* \"#utility.yul\":6627:6775   */\n    tag_88:\n        /* \"#utility.yul\":6729:6740   */\n      0x00\n        /* \"#utility.yul\":6766:6769   */\n      dup2\n        /* \"#utility.yul\":6751:6769   */\n      swap1\n      pop\n        /* \"#utility.yul\":6627:6775   */\n      swap3\n      swap2\n      pop\n      pop\n      jump\t// out\n        /* \"#utility.yul\":6781:7171   */\n    tag_89:\n        /* \"#utility.yul\":6887:6890   */\n      0x00\n        /* \"#utility.yul\":6915:6954   */\n      tag_184\n        /* \"#utility.yul\":6948:6953   */\n      dup3\n        /* \"#utility.yul\":6915:6954   */\n      tag_73\n      jump\t// in\n    tag_184:\n        /* \"#utility.yul\":6970:7059   */\n      tag_185\n        /* \"#utility.yul\":7052:7058   */\n      dup2\n        /* \"#utility.yul\":7047:7050   */\n      dup6\n        /* \"#utility.yul\":6970:7059   */\n      tag_88\n      jump\t// in\n    tag_185:\n        /* \"#utility.yul\":6963:7059   */\n      swap4\n      pop\n        /* \"#utility.yul\":7068:7133   */\n      tag_186\n        /* \"#utility.yul\":7126:7132   */\n      dup2\n        /* \"#utility.yul\":7121:7124   */\n      dup6\n        /* \"#utility.yul\":7114:7118   */\n      0x20\n        /* \"#utility.yul\":7107:7112   */\n      dup7\n        /* \"#utility.yul\":7103:7119   */\n      add\n        /* \"#utility.yul\":7068:7133   */\n      tag_75\n      jump\t// in\n    tag_186:\n        /* \"#utility.yul\":7158:7164   */\n      dup1\n        /* \"#utility.yul\":7153:7156   */\n      dup5\n        /* \"#utility.yul\":7149:7165   */\n      add\n        /* \"#utility.yul\":7142:7165   */\n      swap2\n      pop\n        /* \"#utility.yul\":6891:7171   */\n      pop\n        /* \"#utility.yul\":6781:7171   */\n      swap3\n      swap2\n      pop\n      pop\n      jump\t// out\n        /* \"#utility.yul\":7177:7452   */\n    tag_54:\n        /* \"#utility.yul\":7309:7312   */\n      0x00\n        /* \"#utility.yul\":7331:7426   */\n      tag_188\n        /* \"#utility.yul\":7422:7425   */\n      dup3\n        /* \"#utility.yul\":7413:7419   */\n      dup5\n        /* \"#utility.yul\":7331:7426   */\n      tag_89\n      jump\t// in\n    tag_188:\n        /* \"#utility.yul\":7324:7426   */\n      swap2\n      pop\n        /* \"#utility.yul\":7443:7446   */\n      dup2\n        /* \"#utility.yul\":7436:7446   */\n      swap1\n      pop\n        /* \"#utility.yul\":7177:7452   */\n      swap3\n      swap2\n      pop\n      pop\n      jump\t// out\n        /* \"#utility.yul\":7458:7638   */\n    tag_90:\n        /* \"#utility.yul\":7506:7583   */\n      0x4e487b7100000000000000000000000000000000000000000000000000000000\n        /* \"#utility.yul\":7503:7504   */\n      0x00\n        /* \"#utility.yul\":7496:7584   */\n      mstore\n        /* \"#utility.yul\":7603:7607   */\n      0x11\n        /* \"#utility.yul\":7600:7601   */\n      0x04\n        /* \"#utility.yul\":7593:7608   */\n      mstore\n        /* \"#utility.yul\":7627:7631   */\n      0x24\n        /* \"#utility.yul\":7624:7625   */\n      0x00\n        /* \"#utility.yul\":7617:7632   */\n      revert\n        /* \"#utility.yul\":7644:7835   */\n    tag_58:\n        /* \"#utility.yul\":7684:7687   */\n      0x00\n        /* \"#utility.yul\":7703:7723   */\n      tag_191\n        /* \"#utility.yul\":7721:7722   */\n      dup3\n        /* \"#utility.yul\":7703:7723   */\n      tag_69\n      jump\t// in\n    tag_191:\n        /* \"#utility.yul\":7698:7723   */\n      swap2\n      pop\n        /* \"#utility.yul\":7737:7757   */\n      tag_192\n        /* \"#utility.yul\":7755:7756   */\n      dup4\n        /* \"#utility.yul\":7737:7757   */\n      tag_69\n      jump\t// in\n    tag_192:\n        /* \"#utility.yul\":7732:7757   */\n      swap3\n      pop\n        /* \"#utility.yul\":7780:7781   */\n      dup3\n        /* \"#utility.yul\":7777:7778   */\n      dup3\n        /* \"#utility.yul\":7773:7782   */\n      add\n        /* \"#utility.yul\":7766:7782   */\n      swap1\n      pop\n        /* \"#utility.yul\":7801:7804   */\n      dup1\n        /* \"#utility.yul\":7798:7799   */\n      dup3\n        /* \"#utility.yul\":7795:7805   */\n      gt\n        /* \"#utility.yul\":7792:7828   */\n      iszero\n      tag_193\n      jumpi\n        /* \"#utility.yul\":7808:7826   */\n      tag_194\n      tag_90\n      jump\t// in\n    tag_194:\n        /* \"#utility.yul\":7792:7828   */\n    tag_193:\n        /* \"#utility.yul\":7644:7835   */\n      swap3\n      swap2\n      pop\n      pop\n      jump\t// out\n        /* \"#utility.yul\":7841:7982   */\n    tag_91:\n        /* \"#utility.yul\":7890:7894   */\n      0x00\n        /* \"#utility.yul\":7913:7916   */\n      dup2\n        /* \"#utility.yul\":7905:7916   */\n      swap1\n      pop\n        /* \"#utility.yul\":7936:7939   */\n      dup2\n        /* \"#utility.yul\":7933:7934   */\n      0x00\n        /* \"#utility.yul\":7926:7940   */\n      mstore\n        /* \"#utility.yul\":7970:7974   */\n      0x20\n        /* \"#utility.yul\":7967:7968   */\n      0x00\n        /* \"#utility.yul\":7957:7975   */\n      keccak256\n        /* \"#utility.yul\":7949:7975   */\n      swap1\n      pop\n        /* \"#utility.yul\":7841:7982   */\n      swap2\n      swap1\n      pop\n      jump\t// out\n        /* \"#utility.yul\":7988:8081   */\n    tag_92:\n        /* \"#utility.yul\":8025:8031   */\n      0x00\n        /* \"#utility.yul\":8072:8074   */\n      0x20\n        /* \"#utility.yul\":8067:8069   */\n      0x1f\n        /* \"#utility.yul\":8060:8065   */\n      dup4\n        /* \"#utility.yul\":8056:8070   */\n      add\n        /* \"#utility.yul\":8052:8075   */\n      div\n        /* \"#utility.yul\":8042:8075   */\n      swap1\n      pop\n        /* \"#utility.yul\":7988:8081   */\n      swap2\n      swap1\n      pop\n      jump\t// out\n        /* \"#utility.yul\":8087:8194   */\n    tag_93:\n        /* \"#utility.yul\":8131:8139   */\n      0x00\n        /* \"#utility.yul\":8181:8186   */\n      dup3\n        /* \"#utility.yul\":8175:8179   */\n      dup3\n        /* \"#utility.yul\":8171:8187   */\n      shl\n        /* \"#utility.yul\":8150:8187   */\n      swap1\n      pop\n        /* \"#utility.yul\":8087:8194   */\n      swap3\n      swap2\n      pop\n      pop\n      jump\t// out\n        /* \"#utility.yul\":8200:8593   */\n    tag_94:\n        /* \"#utility.yul\":8269:8275   */\n      0x00\n        /* \"#utility.yul\":8319:8320   */\n      0x08\n        /* \"#utility.yul\":8307:8317   */\n      dup4\n        /* \"#utility.yul\":8303:8321   */\n      mul\n        /* \"#utility.yul\":8342:8439   */\n      tag_199\n        /* \"#utility.yul\":8372:8438   */\n      0xffffffffffffffffffffffffffffffffffffffffffffffffffffffffffffffff\n        /* \"#utility.yul\":8361:8370   */\n      dup3\n        /* \"#utility.yul\":8342:8439   */\n      tag_93\n      jump\t// in\n    tag_199:\n        /* \"#utility.yul\":8460:8499   */\n      tag_200\n        /* \"#utility.yul\":8490:8498   */\n      dup7\n        /* \"#utility.yul\":8479:8488   */\n      dup4\n        /* \"#utility.yul\":8460:8499   */\n      tag_93\n      jump\t// in\n    tag_200:\n        /* \"#utility.yul\":8448:8499   */\n      swap6\n      pop\n        /* \"#utility.yul\":8532:8536   */\n      dup1\n        /* \"#utility.yul\":8528:8537   */\n      not\n        /* \"#utility.yul\":8521:8526   */\n      dup5\n        /* \"#utility.yul\":8517:8538   */\n      and\n        /* \"#utility.yul\":8508:8538   */\n      swap4\n      pop\n        /* \"#utility.yul\":8581:8585   */\n      dup1\n        /* \"#utility.yul\":8571:8579   */\n      dup7\n        /* \"#utility.yul\":8567:8586   */\n      and\n        /* \"#utility.yul\":8560:8565   */\n      dup5\n        /* \"#utility.yul\":8557:8587   */\n      or\n        /* \"#utility.yul\":8547:8587   */\n      swap3\n      pop\n        /* \"#utility.yul\":8276:8593   */\n      pop\n      pop\n        /* \"#utility.yul\":8200:8593   */\n      swap4\n      swap3\n      pop\n      pop\n      pop\n      jump\t// out\n        /* \"#utility.yul\":8599:8659   */\n    tag_95:\n        /* \"#utility.yul\":8627:8630   */\n      0x00\n        /* \"#utility.yul\":8648:8653   */\n      dup2\n        /* \"#utility.yul\":8641:8653   */\n      swap1\n      pop\n        /* \"#utility.yul\":8599:8659   */\n      swap2\n      swap1\n      pop\n      jump\t// out\n        /* \"#utility.yul\":8665:8807   */\n    tag_96:\n        /* \"#utility.yul\":8715:8724   */\n      0x00\n        /* \"#utility.yul\":8748:8801   */\n      tag_203\n        /* \"#utility.yul\":8766:8800   */\n      tag_204\n        /* \"#utility.yul\":8775:8799   */\n      tag_205\n        /* \"#utility.yul\":8793:8798   */\n      dup5\n        /* \"#utility.yul\":8775:8799   */\n      tag_69\n      jump\t// in\n    tag_205:\n        /* \"#utility.yul\":8766:8800   */\n      tag_95\n      jump\t// in\n    tag_204:\n        /* \"#utility.yul\":8748:8801   */\n      tag_69\n      jump\t// in\n    tag_203:\n        /* \"#utility.yul\":8735:8801   */\n      swap1\n      pop\n        /* \"#utility.yul\":8665:8807   */\n      swap2\n      swap1\n      pop\n      jump\t// out\n        /* \"#utility.yul\":8813:8888   */\n    tag_97:\n        /* \"#utility.yul\":8856:8859   */\n      0x00\n        /* \"#utility.yul\":8877:8882   */\n      dup2\n        /* \"#utility.yul\":8870:8882   */\n      swap1\n      pop\n        /* \"#utility.yul\":8813:8888   */\n      swap2\n      swap1\n      pop\n      jump\t// out\n        /* \"#utility.yul\":8894:9163   */\n    tag_98:\n        /* \"#utility.yul\":9004:9043   */\n      tag_208\n        /* \"#utility.yul\":9035:9042   */\n      dup4\n        /* \"#utility.yul\":9004:9043   */\n      tag_96\n      jump\t// in\n    tag_208:\n        /* \"#utility.yul\":9065:9156   */\n      tag_209\n        /* \"#utility.yul\":9114:9155   */\n      tag_210\n        /* \"#utility.yul\":9138:9154   */\n      dup3\n        /* \"#utility.yul\":9114:9155   */\n      tag_97\n      jump\t// in\n    tag_210:\n        /* \"#utility.yul\":9106:9112   */\n      dup5\n        /* \"#utility.yul\":9099:9103   */\n      dup5\n        /* \"#utility.yul\":9093:9104   */\n      sload\n        /* \"#utility.yul\":9065:9156   */\n      tag_94\n      jump\t// in\n    tag_209:\n        /* \"#utility.yul\":9059:9063   */\n      dup3\n        /* \"#utility.yul\":9052:9157   */\n      sstore\n        /* \"#utility.yul\":8970:9163   */\n      pop\n        /* \"#utility.yul\":8894:9163   */\n      pop\n      pop\n      pop\n      jump\t// out\n        /* \"#utility.yul\":9169:9242   */\n    tag_99:\n        /* \"#utility.yul\":9214:9217   */\n      0x00\n        /* \"#utility.yul\":9169:9242   */\n      swap1\n      jump\t// out\n        /* \"#utility.yul\":9248:9437   */\n    tag_100:\n        /* \"#utility.yul\":9325:9357   */\n      tag_213\n      tag_99\n      jump\t// in\n    tag_213:\n        /* \"#utility.yul\":9366:9431   */\n      tag_214\n        /* \"#utility.yul\":9424:9430   */\n      dup2\n        /* \"#utility.yul\":9416:9422   */\n      dup5\n        /* \"#utility.yul\":9410:9414   */\n      dup5\n        /* \"#utility.yul\":9366:9431   */\n      tag_98\n      jump\t// in\n    tag_214:\n        /* \"#utility.yul\":9301:9437   */\n      pop\n        /* \"#utility.yul\":9248:9437   */\n      pop\n      pop\n      jump\t// out\n        /* \"#utility.yul\":9443:9629   */\n    tag_101:\n        /* \"#utility.yul\":9503:9623   */\n    tag_216:\n        /* \"#utility.yul\":9520:9523   */\n      dup2\n        /* \"#utility.yul\":9513:9518   */\n      dup2\n        /* \"#utility.yul\":9510:9524   */\n      lt\n        /* \"#utility.yul\":9503:9623   */\n      iszero\n      tag_218\n      jumpi\n        /* \"#utility.yul\":9574:9613   */\n      tag_219\n        /* \"#utility.yul\":9611:9612   */\n      0x00\n        /* \"#utility.yul\":9604:9609   */\n      dup3\n        /* \"#utility.yul\":9574:9613   */\n      tag_100\n      jump\t// in\n    tag_219:\n        /* \"#utility.yul\":9547:9548   */\n      0x01\n        /* \"#utility.yul\":9540:9545   */\n      dup2\n        /* \"#utility.yul\":9536:9549   */\n      add\n        /* \"#utility.yul\":9527:9549   */\n      swap1\n      pop\n        /* \"#utility.yul\":9503:9623   */\n      jump(tag_216)\n    tag_218:\n        /* \"#utility.yul\":9443:9629   */\n      pop\n      pop\n      jump\t// out\n        /* \"#utility.yul\":9635:10178   */\n    tag_102:\n        /* \"#utility.yul\":9736:9738   */\n      0x1f\n        /* \"#utility.yul\":9731:9734   */\n      dup3\n        /* \"#utility.yul\":9728:9739   */\n      gt\n        /* \"#utility.yul\":9725:10171   */\n      iszero\n      tag_221\n      jumpi\n        /* \"#utility.yul\":9770:9808   */\n      tag_222\n        /* \"#utility.yul\":9802:9807   */\n      dup2\n        /* \"#utility.yul\":9770:9808   */\n      tag_91\n      jump\t// in\n    tag_222:\n        /* \"#utility.yul\":9854:9883   */\n      tag_223\n        /* \"#utility.yul\":9872:9882   */\n      dup5\n        /* \"#utility.yul\":9854:9883   */\n      tag_92\n      jump\t// in\n    tag_223:\n        /* \"#utility.yul\":9844:9852   */\n      dup2\n        /* \"#utility.yul\":9840:9884   */\n      add\n        /* \"#utility.yul\":10037:10039   */\n      0x20\n        /* \"#utility.yul\":10025:10035   */\n      dup6\n        /* \"#utility.yul\":10022:10040   */\n      lt\n        /* \"#utility.yul\":10019:10068   */\n      iszero\n      tag_224\n      jumpi\n        /* \"#utility.yul\":10058:10066   */\n      dup2\n        /* \"#utility.yul\":10043:10066   */\n      swap1\n      pop\n        /* \"#utility.yul\":10019:10068   */\n    tag_224:\n        /* \"#utility.yul\":10081:10161   */\n      tag_225\n        /* \"#utility.yul\":10137:10159   */\n      tag_226\n        /* \"#utility.yul\":10155:10158   */\n      dup6\n        /* \"#utility.yul\":10137:10159   */\n      tag_92\n      jump\t// in\n    tag_226:\n        /* \"#utility.yul\":10127:10135   */\n      dup4\n        /* \"#utility.yul\":10123:10160   */\n      add\n        /* \"#utility.yul\":10110:10121   */\n      dup3\n        /* \"#utility.yul\":10081:10161   */\n      tag_101\n      jump\t// in\n    tag_225:\n        /* \"#utility.yul\":9740:10171   */\n      pop\n      pop\n        /* \"#utility.yul\":9725:10171   */\n    tag_221:\n        /* \"#utility.yul\":9635:10178   */\n      pop\n      pop\n      pop\n      jump\t// out\n        /* \"#utility.yul\":10184:10301   */\n    tag_103:\n        /* \"#utility.yul\":10238:10246   */\n      0x00\n        /* \"#utility.yul\":10288:10293   */\n      dup3\n        /* \"#utility.yul\":10282:10286   */\n      dup3\n        /* \"#utility.yul\":10278:10294   */\n      shr\n        /* \"#utility.yul\":10257:10294   */\n      swap1\n      pop\n        /* \"#utility.yul\":10184:10301   */\n      swap3\n      swap2\n      pop\n      pop\n      jump\t// out\n        /* \"#utility.yul\":10307:10476   */\n    tag_104:\n        /* \"#utility.yul\":10351:10357   */\n      0x00\n        /* \"#utility.yul\":10384:10435   */\n      tag_229\n        /* \"#utility.yul\":10432:10433   */\n      0x00\n        /* \"#utility.yul\":10428:10434   */\n      not\n        /* \"#utility.yul\":10420:10425   */\n      dup5\n        /* \"#utility.yul\":10417:10418   */\n      0x08\n        /* \"#utility.yul\":10413:10426   */\n      mul\n        /* \"#utility.yul\":10384:10435   */\n      tag_103\n      jump\t// in\n    tag_229:\n        /* \"#utility.yul\":10380:10436   */\n      not\n        /* \"#utility.yul\":10465:10469   */\n      dup1\n        /* \"#utility.yul\":10459:10463   */\n      dup4\n        /* \"#utility.yul\":10455:10470   */\n      and\n        /* \"#utility.yul\":10445:10470   */\n      swap2\n      pop\n        /* \"#utility.yul\":10358:10476   */\n      pop\n        /* \"#utility.yul\":10307:10476   */\n      swap3\n      swap2\n      pop\n      pop\n      jump\t// out\n        /* \"#utility.yul\":10481:10776   */\n    tag_105:\n        /* \"#utility.yul\":10557:10561   */\n      0x00\n        /* \"#utility.yul\":10703:10732   */\n      tag_231\n        /* \"#utility.yul\":10728:10731   */\n      dup4\n        /* \"#utility.yul\":10722:10726   */\n      dup4\n        /* \"#utility.yul\":10703:10732   */\n      tag_104\n      jump\t// in\n    tag_231:\n        /* \"#utility.yul\":10695:10732   */\n      swap2\n      pop\n        /* \"#utility.yul\":10765:10768   */\n      dup3\n        /* \"#utility.yul\":10762:10763   */\n      0x02\n        /* \"#utility.yul\":10758:10769   */\n      mul\n        /* \"#utility.yul\":10752:10756   */\n      dup3\n        /* \"#utility.yul\":10749:10770   */\n      or\n        /* \"#utility.yul\":10741:10770   */\n      swap1\n      pop\n        /* \"#utility.yul\":10481:10776   */\n      swap3\n      swap2\n      pop\n      pop\n      jump\t// out\n        /* \"#utility.yul\":10781:12176   */\n    tag_62:\n        /* \"#utility.yul\":10898:10935   */\n      tag_233\n        /* \"#utility.yul\":10931:10934   */\n      dup3\n        /* \"#utility.yul\":10898:10935   */\n      tag_73\n      jump\t// in\n    tag_233:\n        /* \"#utility.yul\":11000:11018   */\n      0xffffffffffffffff\n        /* \"#utility.yul\":10992:10998   */\n      dup2\n        /* \"#utility.yul\":10989:11019   */\n      gt\n        /* \"#utility.yul\":10986:11042   */\n      iszero\n      tag_234\n      jumpi\n        /* \"#utility.yul\":11022:11040   */\n      tag_235\n      tag_80\n      jump\t// in\n    tag_235:\n        /* \"#utility.yul\":10986:11042   */\n    tag_234:\n        /* \"#utility.yul\":11066:11104   */\n      tag_236\n        /* \"#utility.yul\":11098:11102   */\n      dup3\n        /* \"#utility.yul\":11092:11103   */\n      sload\n        /* \"#utility.yul\":11066:11104   */\n      tag_47\n      jump\t// in\n    tag_236:\n        /* \"#utility.yul\":11151:11218   */\n      tag_237\n        /* \"#utility.yul\":11211:11217   */\n      dup3\n        /* \"#utility.yul\":11203:11209   */\n      dup3\n        /* \"#utility.yul\":11197:11201   */\n      dup6\n        /* \"#utility.yul\":11151:11218   */\n      tag_102\n      jump\t// in\n    tag_237:\n        /* \"#utility.yul\":11245:11246   */\n      0x00\n        /* \"#utility.yul\":11269:11273   */\n      0x20\n        /* \"#utility.yul\":11256:11273   */\n      swap1\n      pop\n        /* \"#utility.yul\":11301:11303   */\n      0x1f\n        /* \"#utility.yul\":11293:11299   */\n      dup4\n        /* \"#utility.yul\":11290:11304   */\n      gt\n        /* \"#utility.yul\":11318:11319   */\n      0x01\n        /* \"#utility.yul\":11313:11931   */\n      dup2\n      eq\n      tag_239\n      jumpi\n        /* \"#utility.yul\":11975:11976   */\n      0x00\n        /* \"#utility.yul\":11992:11998   */\n      dup5\n        /* \"#utility.yul\":11989:12066   */\n      iszero\n      tag_240\n      jumpi\n        /* \"#utility.yul\":12041:12050   */\n      dup3\n        /* \"#utility.yul\":12036:12039   */\n      dup8\n        /* \"#utility.yul\":12032:12051   */\n      add\n        /* \"#utility.yul\":12026:12052   */\n      mload\n        /* \"#utility.yul\":12017:12052   */\n      swap1\n      pop\n        /* \"#utility.yul\":11989:12066   */\n    tag_240:\n        /* \"#utility.yul\":12092:12159   */\n      tag_241\n        /* \"#utility.yul\":12152:12158   */\n      dup6\n        /* \"#utility.yul\":12145:12150   */\n      dup3\n        /* \"#utility.yul\":12092:12159   */\n      tag_105\n      jump\t// in\n    tag_241:\n        /* \"#utility.yul\":12086:12090   */\n      dup7\n        /* \"#utility.yul\":12079:12160   */\n      sstore\n        /* \"#utility.yul\":11948:12170   */\n      pop\n        /* \"#utility.yul\":11283:12170   */\n      jump(tag_238)\n        /* \"#utility.yul\":11313:11931   */\n    tag_239:\n        /* \"#utility.yul\":11365:11369   */\n      0x1f\n        /* \"#utility.yul\":11361:11370   */\n      not\n        /* \"#utility.yul\":11353:11359   */\n      dup5\n        /* \"#utility.yul\":11349:11371   */\n      and\n        /* \"#utility.yul\":11399:11436   */\n      tag_242\n        /* \"#utility.yul\":11431:11435   */\n      dup7\n        /* \"#utility.yul\":11399:11436   */\n      tag_91\n      jump\t// in\n    tag_242:\n        /* \"#utility.yul\":11458:11459   */\n      0x00\n        /* \"#utility.yul\":11472:11680   */\n    tag_243:\n        /* \"#utility.yul\":11486:11493   */\n      dup3\n        /* \"#utility.yul\":11483:11484   */\n      dup2\n        /* \"#utility.yul\":11480:11494   */\n      lt\n        /* \"#utility.yul\":11472:11680   */\n      iszero\n      tag_245\n      jumpi\n        /* \"#utility.yul\":11565:11574   */\n      dup5\n        /* \"#utility.yul\":11560:11563   */\n      dup10\n        /* \"#utility.yul\":11556:11575   */\n      add\n        /* \"#utility.yul\":11550:11576   */\n      mload\n        /* \"#utility.yul\":11542:11548   */\n      dup3\n        /* \"#utility.yul\":11535:11577   */\n      sstore\n        /* \"#utility.yul\":11616:11617   */\n      0x01\n        /* \"#utility.yul\":11608:11614   */\n      dup3\n        /* \"#utility.yul\":11604:11618   */\n      add\n        /* \"#utility.yul\":11594:11618   */\n      swap2\n      pop\n        /* \"#utility.yul\":11663:11665   */\n      0x20\n        /* \"#utility.yul\":11652:11661   */\n      dup6\n        /* \"#utility.yul\":11648:11666   */\n      add\n        /* \"#utility.yul\":11635:11666   */\n      swap5\n      pop\n        /* \"#utility.yul\":11509:11513   */\n      0x20\n        /* \"#utility.yul\":11506:11507   */\n      dup2\n        /* \"#utility.yul\":11502:11514   */\n      add\n        /* \"#utility.yul\":11497:11514   */\n      swap1\n      pop\n        /* \"#utility.yul\":11472:11680   */\n      jump(tag_243)\n    tag_245:\n        /* \"#utility.yul\":11708:11714   */\n      dup7\n        /* \"#utility.yul\":11699:11706   */\n      dup4\n        /* \"#utility.yul\":11696:11715   */\n      lt\n        /* \"#utility.yul\":11693:11872   */\n      iszero\n      tag_246\n      jumpi\n        /* \"#utility.yul\":11766:11775   */\n      dup5\n        /* \"#utility.yul\":11761:11764   */\n      dup10\n        /* \"#utility.yul\":11757:11776   */\n      add\n        /* \"#utility.yul\":11751:11777   */\n      mload\n        /* \"#utility.yul\":11809:11857   */\n      tag_247\n        /* \"#utility.yul\":11851:11855   */\n      0x1f\n        /* \"#utility.yul\":11843:11849   */\n      dup10\n        /* \"#utility.yul\":11839:11856   */\n      and\n        /* \"#utility.yul\":11828:11837   */\n      dup3\n        /* \"#utility.yul\":11809:11857   */\n      tag_104\n      jump\t// in\n    tag_247:\n        /* \"#utility.yul\":11801:11807   */\n      dup4\n        /* \"#utility.yul\":11794:11858   */\n      sstore\n        /* \"#utility.yul\":11716:11872   */\n      pop\n        /* \"#utility.yul\":11693:11872   */\n    tag_246:\n        /* \"#utility.yul\":11918:11919   */\n      0x01\n        /* \"#utility.yul\":11914:11915   */\n      0x02\n        /* \"#utility.yul\":11906:11912   */\n      dup9\n        /* \"#utility.yul\":11902:11916   */\n      mul\n        /* \"#utility.yul\":11898:11920   */\n      add\n        /* \"#utility.yul\":11892:11896   */\n      dup9\n        /* \"#utility.yul\":11885:11921   */\n      sstore\n        /* \"#utility.yul\":11320:11931   */\n      pop\n      pop\n      pop\n        /* \"#utility.yul\":11283:12170   */\n    tag_238:\n      pop\n        /* \"#utility.yul\":10873:12176   */\n      pop\n      pop\n      pop\n        /* \"#utility.yul\":10781:12176   */\n      pop\n      pop\n      jump\t// out\n\n    auxdata: 0xa2646970667358221220cfa79cfc59db50c68f3462c0733a706202f77079d8a0eb643272a6111758968664736f6c63430008120033\n}\n",
				"bytecode": {
					"linkReferences": {},
					"object": "608060405234801561001057600080fd5b50610a9b806100206000396000f3fe608060405234801561001057600080fd5b50600436106100885760003560e01c806343ede4ae1161005b57806343ede4ae146101285780636057361d14610146578063e1b3202a14610162578063e80521e11461017e57610088565b8063092a18201461008d5780632595d8aa146100be578063282af2d7146100da5780632e64cec11461010a575b600080fd5b6100a760048036038101906100a291906103e0565b6101ae565b6040516100b59291906104ac565b60405180910390f35b6100d860048036038101906100d39190610611565b61026a565b005b6100f460048036038101906100ef919061066d565b610291565b60405161010191906106b6565b60405180910390f35b6101126102bf565b60405161011f91906106b6565b60405180910390f35b6101306102c9565b60405161013d91906106b6565b60405180910390f35b610160600480360381019061015b91906103e0565b6102cf565b005b61017c60048036038101906101779190610611565b6102e5565b005b6101986004803603810190610193919061066d565b61036e565b6040516101a591906106b6565b60405180910390f35b600181815481106101be57600080fd5b90600052602060002090600202016000915090508060000154908060010180546101e790610700565b80601f016020809104026020016040519081016040528092919081815260200182805461021390610700565b80156102605780601f1061023557610100808354040283529160200191610260565b820191906000526020600020905b81548152906001019060200180831161024357829003601f168201915b5050505050905082565b8060038360405161027b919061076d565b9081526020016040518091039020819055505050565b6000818051602081018201805184825260208301602085012081835280955050505050506000915090505481565b6000600254905090565b60025481565b6005816102dc91906107b3565b60028190555050565b600160405180604001604052808381526020018481525090806001815401808255809150506001900390600052602060002090600202016000909190919091506000820151816000015560208201518160010190816103449190610993565b50505080600083604051610358919061076d565b9081526020016040518091039020819055505050565b6000600382604051610380919061076d565b9081526020016040518091039020549050919050565b6000604051905090565b600080fd5b600080fd5b6000819050919050565b6103bd816103aa565b81146103c857600080fd5b50565b6000813590506103da816103b4565b92915050565b6000602082840312156103f6576103f56103a0565b5b6000610404848285016103cb565b91505092915050565b610416816103aa565b82525050565b600081519050919050565b600082825260208201905092915050565b60005b8381101561045657808201518184015260208101905061043b565b60008484015250505050565b6000601f19601f8301169050919050565b600061047e8261041c565b6104888185610427565b9350610498818560208601610438565b6104a181610462565b840191505092915050565b60006040820190506104c1600083018561040d565b81810360208301526104d38184610473565b90509392505050565b600080fd5b600080fd5b7f4e487b7100000000000000000000000000000000000000000000000000000000600052604160045260246000fd5b61051e82610462565b810181811067ffffffffffffffff8211171561053d5761053c6104e6565b5b80604052505050565b6000610550610396565b905061055c8282610515565b919050565b600067ffffffffffffffff82111561057c5761057b6104e6565b5b61058582610462565b9050602081019050919050565b82818337600083830152505050565b60006105b46105af84610561565b610546565b9050828152602081018484840111156105d0576105cf6104e1565b5b6105db848285610592565b509392505050565b600082601f8301126105f8576105f76104dc565b5b81356106088482602086016105a1565b91505092915050565b60008060408385031215610628576106276103a0565b5b600083013567ffffffffffffffff811115610646576106456103a5565b5b610652858286016105e3565b9250506020610663858286016103cb565b9150509250929050565b600060208284031215610683576106826103a0565b5b600082013567ffffffffffffffff8111156106a1576106a06103a5565b5b6106ad848285016105e3565b91505092915050565b60006020820190506106cb600083018461040d565b92915050565b7f4e487b7100000000000000000000000000000000000000000000000000000000600052602260045260246000fd5b6000600282049050600182168061071857607f821691505b60208210810361072b5761072a6106d1565b5b50919050565b600081905092915050565b60006107478261041c565b6107518185610731565b9350610761818560208601610438565b80840191505092915050565b6000610779828461073c565b915081905092915050565b7f4e487b7100000000000000000000000000000000000000000000000000000000600052601160045260246000fd5b60006107be826103aa565b91506107c9836103aa565b92508282019050808211156107e1576107e0610784565b5b92915050565b60008190508160005260206000209050919050565b60006020601f8301049050919050565b600082821b905092915050565b6000600883026108497fffffffffffffffffffffffffffffffffffffffffffffffffffffffffffffffff8261080c565b610853868361080c565b95508019841693508086168417925050509392505050565b6000819050919050565b600061089061088b610886846103aa565b61086b565b6103aa565b9050919050565b6000819050919050565b6108aa83610875565b6108be6108b682610897565b848454610819565b825550505050565b600090565b6108d36108c6565b6108de8184846108a1565b505050565b5b81811015610902576108f76000826108cb565b6001810190506108e4565b5050565b601f82111561094757610918816107e7565b610921846107fc565b81016020851015610930578190505b61094461093c856107fc565b8301826108e3565b50505b505050565b600082821c905092915050565b600061096a6000198460080261094c565b1980831691505092915050565b60006109838383610959565b9150826002028217905092915050565b61099c8261041c565b67ffffffffffffffff8111156109b5576109b46104e6565b5b6109bf8254610700565b6109ca828285610906565b600060209050601f8311600181146109fd57600084156109eb578287015190505b6109f58582610977565b865550610a5d565b601f198416610a0b866107e7565b60005b82811015610a3357848901518255600182019150602085019450602081019050610a0e565b86831015610a505784890151610a4c601f891682610959565b8355505b6001600288020188555050505b50505050505056fea2646970667358221220cfa79cfc59db50c68f3462c0733a706202f77079d8a0eb643272a6111758968664736f6c63430008120033",
					"opcodes": "PUSH1 0x80 PUSH1 0x40 MSTORE CALLVALUE DUP1 ISZERO PUSH2 0x10 JUMPI PUSH1 0x0 DUP1 REVERT JUMPDEST POP PUSH2 0xA9B DUP1 PUSH2 0x20 PUSH1 0x0 CODECOPY PUSH1 0x0 RETURN INVALID PUSH1 0x80 PUSH1 0x40 MSTORE CALLVALUE DUP1 ISZERO PUSH2 0x10 JUMPI PUSH1 0x0 DUP1 REVERT JUMPDEST POP PUSH1 0x4 CALLDATASIZE LT PUSH2 0x88 JUMPI PUSH1 0x0 CALLDATALOAD PUSH1 0xE0 SHR DUP1 PUSH4 0x43EDE4AE GT PUSH2 0x5B JUMPI DUP1 PUSH4 0x43EDE4AE EQ PUSH2 0x128 JUMPI DUP1 PUSH4 0x6057361D EQ PUSH2 0x146 JUMPI DUP1 PUSH4 0xE1B3202A EQ PUSH2 0x162 JUMPI DUP1 PUSH4 0xE80521E1 EQ PUSH2 0x17E JUMPI PUSH2 0x88 JUMP JUMPDEST DUP1 PUSH4 0x92A1820 EQ PUSH2 0x8D JUMPI DUP1 PUSH4 0x2595D8AA EQ PUSH2 0xBE JUMPI DUP1 PUSH4 0x282AF2D7 EQ PUSH2 0xDA JUMPI DUP1 PUSH4 0x2E64CEC1 EQ PUSH2 0x10A JUMPI JUMPDEST PUSH1 0x0 DUP1 REVERT JUMPDEST PUSH2 0xA7 PUSH1 0x4 DUP1 CALLDATASIZE SUB DUP2 ADD SWAP1 PUSH2 0xA2 SWAP2 SWAP1 PUSH2 0x3E0 JUMP JUMPDEST PUSH2 0x1AE JUMP JUMPDEST PUSH1 0x40 MLOAD PUSH2 0xB5 SWAP3 SWAP2 SWAP1 PUSH2 0x4AC JUMP JUMPDEST PUSH1 0x40 MLOAD DUP1 SWAP2 SUB SWAP1 RETURN JUMPDEST PUSH2 0xD8 PUSH1 0x4 DUP1 CALLDATASIZE SUB DUP2 ADD SWAP1 PUSH2 0xD3 SWAP2 SWAP1 PUSH2 0x611 JUMP JUMPDEST PUSH2 0x26A JUMP JUMPDEST STOP JUMPDEST PUSH2 0xF4 PUSH1 0x4 DUP1 CALLDATASIZE SUB DUP2 ADD SWAP1 PUSH2 0xEF SWAP2 SWAP1 PUSH2 0x66D JUMP JUMPDEST PUSH2 0x291 JUMP JUMPDEST PUSH1 0x40 MLOAD PUSH2 0x101 SWAP2 SWAP1 PUSH2 0x6B6 JUMP JUMPDEST PUSH1 0x40 MLOAD DUP1 SWAP2 SUB SWAP1 RETURN JUMPDEST PUSH2 0x112 PUSH2 0x2BF JUMP JUMPDEST PUSH1 0x40 MLOAD PUSH2 0x11F SWAP2 SWAP1 PUSH2 0x6B6 JUMP JUMPDEST PUSH1 0x40 MLOAD DUP1 SWAP2 SUB SWAP1 RETURN JUMPDEST PUSH2 0x130 PUSH2 0x2C9 JUMP JUMPDEST PUSH1 0x40 MLOAD PUSH2 0x13D SWAP2 SWAP1 PUSH2 0x6B6 JUMP JUMPDEST PUSH1 0x40 MLOAD DUP1 SWAP2 SUB SWAP1 RETURN JUMPDEST PUSH2 0x160 PUSH1 0x4 DUP1 CALLDATASIZE SUB DUP2 ADD SWAP1 PUSH2 0x15B SWAP2 SWAP1 PUSH2 0x3E0 JUMP JUMPDEST PUSH2 0x2CF JUMP JUMPDEST STOP JUMPDEST PUSH2 0x17C PUSH1 0x4 DUP1 CALLDATASIZE SUB DUP2 ADD SWAP1 PUSH2 0x177 SWAP2 SWAP1 PUSH2 0x611 JUMP JUMPDEST PUSH2 0x2E5 JUMP JUMPDEST STOP JUMPDEST PUSH2 0x198 PUSH1 0x4 DUP1 CALLDATASIZE SUB DUP2 ADD SWAP1 PUSH2 0x193 SWAP2 SWAP1 PUSH2 0x66D JUMP JUMPDEST PUSH2 0x36E JUMP JUMPDEST PUSH1 0x40 MLOAD PUSH2 0x1A5 SWAP2 SWAP1 PUSH2 0x6B6 JUMP JUMPDEST PUSH1 0x40 MLOAD DUP1 SWAP2 SUB SWAP1 RETURN JUMPDEST PUSH1 0x1 DUP2 DUP2 SLOAD DUP2 LT PUSH2 0x1BE JUMPI PUSH1 0x0 DUP1 REVERT JUMPDEST SWAP1 PUSH1 0x0 MSTORE PUSH1 0x20 PUSH1 0x0 KECCAK256 SWAP1 PUSH1 0x2 MUL ADD PUSH1 0x0 SWAP2 POP SWAP1 POP DUP1 PUSH1 0x0 ADD SLOAD SWAP1 DUP1 PUSH1 0x1 ADD DUP1 SLOAD PUSH2 0x1E7 SWAP1 PUSH2 0x700 JUMP JUMPDEST DUP1 PUSH1 0x1F ADD PUSH1 0x20 DUP1 SWAP2 DIV MUL PUSH1 0x20 ADD PUSH1 0x40 MLOAD SWAP1 DUP2 ADD PUSH1 0x40 MSTORE DUP1 SWAP3 SWAP2 SWAP1 DUP2 DUP2 MSTORE PUSH1 0x20 ADD DUP3 DUP1 SLOAD PUSH2 0x213 SWAP1 PUSH2 0x700 JUMP JUMPDEST DUP1 ISZERO PUSH2 0x260 JUMPI DUP1 PUSH1 0x1F LT PUSH2 0x235 JUMPI PUSH2 0x100 DUP1 DUP4 SLOAD DIV MUL DUP4 MSTORE SWAP2 PUSH1 0x20 ADD SWAP2 PUSH2 0x260 JUMP JUMPDEST DUP3 ADD SWAP2 SWAP1 PUSH1 0x0 MSTORE PUSH1 0x20 PUSH1 0x0 KECCAK256 SWAP1 JUMPDEST DUP2 SLOAD DUP2 MSTORE SWAP1 PUSH1 0x1 ADD SWAP1 PUSH1 0x20 ADD DUP1 DUP4 GT PUSH2 0x243 JUMPI DUP3 SWAP1 SUB PUSH1 0x1F AND DUP3 ADD SWAP2 JUMPDEST POP POP POP POP POP SWAP1 POP DUP3 JUMP JUMPDEST DUP1 PUSH1 0x3 DUP4 PUSH1 0x40 MLOAD PUSH2 0x27B SWAP2 SWAP1 PUSH2 0x76D JUMP JUMPDEST SWAP1 DUP2 MSTORE PUSH1 0x20 ADD PUSH1 0x40 MLOAD DUP1 SWAP2 SUB SWAP1 KECCAK256 DUP2 SWAP1 SSTORE POP POP POP JUMP JUMPDEST PUSH1 0x0 DUP2 DUP1 MLOAD PUSH1 0x20 DUP2 ADD DUP3 ADD DUP1 MLOAD DUP5 DUP3 MSTORE PUSH1 0x20 DUP4 ADD PUSH1 0x20 DUP6 ADD KECCAK256 DUP2 DUP4 MSTORE DUP1 SWAP6 POP POP POP POP POP POP PUSH1 0x0 SWAP2 POP SWAP1 POP SLOAD DUP2 JUMP JUMPDEST PUSH1 0x0 PUSH1 0x2 SLOAD SWAP1 POP SWAP1 JUMP JUMPDEST PUSH1 0x2 SLOAD DUP2 JUMP JUMPDEST PUSH1 0x5 DUP2 PUSH2 0x2DC SWAP2 SWAP1 PUSH2 0x7B3 JUMP JUMPDEST PUSH1 0x2 DUP2 SWAP1 SSTORE POP POP JUMP JUMPDEST PUSH1 0x1 PUSH1 0x40 MLOAD DUP1 PUSH1 0x40 ADD PUSH1 0x40 MSTORE DUP1 DUP4 DUP2 MSTORE PUSH1 0x20 ADD DUP5 DUP2 MSTORE POP SWAP1 DUP1 PUSH1 0x1 DUP2 SLOAD ADD DUP1 DUP3 SSTORE DUP1 SWAP2 POP POP PUSH1 0x1 SWAP1 SUB SWAP1 PUSH1 0x0 MSTORE PUSH1 0x20 PUSH1 0x0 KECCAK256 SWAP1 PUSH1 0x2 MUL ADD PUSH1 0x0 SWAP1 SWAP2 SWAP1 SWAP2 SWAP1 SWAP2 POP PUSH1 0x0 DUP3 ADD MLOAD DUP2 PUSH1 0x0 ADD SSTORE PUSH1 0x20 DUP3 ADD MLOAD DUP2 PUSH1 0x1 ADD SWAP1 DUP2 PUSH2 0x344 SWAP2 SWAP1 PUSH2 0x993 JUMP JUMPDEST POP POP POP DUP1 PUSH1 0x0 DUP4 PUSH1 0x40 MLOAD PUSH2 0x358 SWAP2 SWAP1 PUSH2 0x76D JUMP JUMPDEST SWAP1 DUP2 MSTORE PUSH1 0x20 ADD PUSH1 0x40 MLOAD DUP1 SWAP2 SUB SWAP1 KECCAK256 DUP2 SWAP1 SSTORE POP POP POP JUMP JUMPDEST PUSH1 0x0 PUSH1 0x3 DUP3 PUSH1 0x40 MLOAD PUSH2 0x380 SWAP2 SWAP1 PUSH2 0x76D JUMP JUMPDEST SWAP1 DUP2 MSTORE PUSH1 0x20 ADD PUSH1 0x40 MLOAD DUP1 SWAP2 SUB SWAP1 KECCAK256 SLOAD SWAP1 POP SWAP2 SWAP1 POP JUMP JUMPDEST PUSH1 0x0 PUSH1 0x40 MLOAD SWAP1 POP SWAP1 JUMP JUMPDEST PUSH1 0x0 DUP1 REVERT JUMPDEST PUSH1 0x0 DUP1 REVERT JUMPDEST PUSH1 0x0 DUP2 SWAP1 POP SWAP2 SWAP1 POP JUMP JUMPDEST PUSH2 0x3BD DUP2 PUSH2 0x3AA JUMP JUMPDEST DUP2 EQ PUSH2 0x3C8 JUMPI PUSH1 0x0 DUP1 REVERT JUMPDEST POP JUMP JUMPDEST PUSH1 0x0 DUP2 CALLDATALOAD SWAP1 POP PUSH2 0x3DA DUP2 PUSH2 0x3B4 JUMP JUMPDEST SWAP3 SWAP2 POP POP JUMP JUMPDEST PUSH1 0x0 PUSH1 0x20 DUP3 DUP5 SUB SLT ISZERO PUSH2 0x3F6 JUMPI PUSH2 0x3F5 PUSH2 0x3A0 JUMP JUMPDEST JUMPDEST PUSH1 0x0 PUSH2 0x404 DUP5 DUP3 DUP6 ADD PUSH2 0x3CB JUMP JUMPDEST SWAP2 POP POP SWAP3 SWAP2 POP POP JUMP JUMPDEST PUSH2 0x416 DUP2 PUSH2 0x3AA JUMP JUMPDEST DUP3 MSTORE POP POP JUMP JUMPDEST PUSH1 0x0 DUP2 MLOAD SWAP1 POP SWAP2 SWAP1 POP JUMP JUMPDEST PUSH1 0x0 DUP3 DUP3 MSTORE PUSH1 0x20 DUP3 ADD SWAP1 POP SWAP3 SWAP2 POP POP JUMP JUMPDEST PUSH1 0x0 JUMPDEST DUP4 DUP2 LT ISZERO PUSH2 0x456 JUMPI DUP1 DUP3 ADD MLOAD DUP2 DUP5 ADD MSTORE PUSH1 0x20 DUP2 ADD SWAP1 POP PUSH2 0x43B JUMP JUMPDEST PUSH1 0x0 DUP5 DUP5 ADD MSTORE POP POP POP POP JUMP JUMPDEST PUSH1 0x0 PUSH1 0x1F NOT PUSH1 0x1F DUP4 ADD AND SWAP1 POP SWAP2 SWAP1 POP JUMP JUMPDEST PUSH1 0x0 PUSH2 0x47E DUP3 PUSH2 0x41C JUMP JUMPDEST PUSH2 0x488 DUP2 DUP6 PUSH2 0x427 JUMP JUMPDEST SWAP4 POP PUSH2 0x498 DUP2 DUP6 PUSH1 0x20 DUP7 ADD PUSH2 0x438 JUMP JUMPDEST PUSH2 0x4A1 DUP2 PUSH2 0x462 JUMP JUMPDEST DUP5 ADD SWAP2 POP POP SWAP3 SWAP2 POP POP JUMP JUMPDEST PUSH1 0x0 PUSH1 0x40 DUP3 ADD SWAP1 POP PUSH2 0x4C1 PUSH1 0x0 DUP4 ADD DUP6 PUSH2 0x40D JUMP JUMPDEST DUP2 DUP2 SUB PUSH1 0x20 DUP4 ADD MSTORE PUSH2 0x4D3 DUP2 DUP5 PUSH2 0x473 JUMP JUMPDEST SWAP1 POP SWAP4 SWAP3 POP POP POP JUMP JUMPDEST PUSH1 0x0 DUP1 REVERT JUMPDEST PUSH1 0x0 DUP1 REVERT JUMPDEST PUSH32 0x4E487B7100000000000000000000000000000000000000000000000000000000 PUSH1 0x0 MSTORE PUSH1 0x41 PUSH1 0x4 MSTORE PUSH1 0x24 PUSH1 0x0 REVERT JUMPDEST PUSH2 0x51E DUP3 PUSH2 0x462 JUMP JUMPDEST DUP2 ADD DUP2 DUP2 LT PUSH8 0xFFFFFFFFFFFFFFFF DUP3 GT OR ISZERO PUSH2 0x53D JUMPI PUSH2 0x53C PUSH2 0x4E6 JUMP JUMPDEST JUMPDEST DUP1 PUSH1 0x40 MSTORE POP POP POP JUMP JUMPDEST PUSH1 0x0 PUSH2 0x550 PUSH2 0x396 JUMP JUMPDEST SWAP1 POP PUSH2 0x55C DUP3 DUP3 PUSH2 0x515 JUMP JUMPDEST SWAP2 SWAP1 POP JUMP JUMPDEST PUSH1 0x0 PUSH8 0xFFFFFFFFFFFFFFFF DUP3 GT ISZERO PUSH2 0x57C JUMPI PUSH2 0x57B PUSH2 0x4E6 JUMP JUMPDEST JUMPDEST PUSH2 0x585 DUP3 PUSH2 0x462 JUMP JUMPDEST SWAP1 POP PUSH1 0x20 DUP2 ADD SWAP1 POP SWAP2 SWAP1 POP JUMP JUMPDEST DUP3 DUP2 DUP4 CALLDATACOPY PUSH1 0x0 DUP4 DUP4 ADD MSTORE POP POP POP JUMP JUMPDEST PUSH1 0x0 PUSH2 0x5B4 PUSH2 0x5AF DUP5 PUSH2 0x561 JUMP JUMPDEST PUSH2 0x546 JUMP JUMPDEST SWAP1 POP DUP3 DUP2 MSTORE PUSH1 0x20 DUP2 ADD DUP5 DUP5 DUP5 ADD GT ISZERO PUSH2 0x5D0 JUMPI PUSH2 0x5CF PUSH2 0x4E1 JUMP JUMPDEST JUMPDEST PUSH2 0x5DB DUP5 DUP3 DUP6 PUSH2 0x592 JUMP JUMPDEST POP SWAP4 SWAP3 POP POP POP JUMP JUMPDEST PUSH1 0x0 DUP3 PUSH1 0x1F DUP4 ADD SLT PUSH2 0x5F8 JUMPI PUSH2 0x5F7 PUSH2 0x4DC JUMP JUMPDEST JUMPDEST DUP2 CALLDATALOAD PUSH2 0x608 DUP5 DUP3 PUSH1 0x20 DUP7 ADD PUSH2 0x5A1 JUMP JUMPDEST SWAP2 POP POP SWAP3 SWAP2 POP POP JUMP JUMPDEST PUSH1 0x0 DUP1 PUSH1 0x40 DUP4 DUP6 SUB SLT ISZERO PUSH2 0x628 JUMPI PUSH2 0x627 PUSH2 0x3A0 JUMP JUMPDEST JUMPDEST PUSH1 0x0 DUP4 ADD CALLDATALOAD PUSH8 0xFFFFFFFFFFFFFFFF DUP2 GT ISZERO PUSH2 0x646 JUMPI PUSH2 0x645 PUSH2 0x3A5 JUMP JUMPDEST JUMPDEST PUSH2 0x652 DUP6 DUP3 DUP7 ADD PUSH2 0x5E3 JUMP JUMPDEST SWAP3 POP POP PUSH1 0x20 PUSH2 0x663 DUP6 DUP3 DUP7 ADD PUSH2 0x3CB JUMP JUMPDEST SWAP2 POP POP SWAP3 POP SWAP3 SWAP1 POP JUMP JUMPDEST PUSH1 0x0 PUSH1 0x20 DUP3 DUP5 SUB SLT ISZERO PUSH2 0x683 JUMPI PUSH2 0x682 PUSH2 0x3A0 JUMP JUMPDEST JUMPDEST PUSH1 0x0 DUP3 ADD CALLDATALOAD PUSH8 0xFFFFFFFFFFFFFFFF DUP2 GT ISZERO PUSH2 0x6A1 JUMPI PUSH2 0x6A0 PUSH2 0x3A5 JUMP JUMPDEST JUMPDEST PUSH2 0x6AD DUP5 DUP3 DUP6 ADD PUSH2 0x5E3 JUMP JUMPDEST SWAP2 POP POP SWAP3 SWAP2 POP POP JUMP JUMPDEST PUSH1 0x0 PUSH1 0x20 DUP3 ADD SWAP1 POP PUSH2 0x6CB PUSH1 0x0 DUP4 ADD DUP5 PUSH2 0x40D JUMP JUMPDEST SWAP3 SWAP2 POP POP JUMP JUMPDEST PUSH32 0x4E487B7100000000000000000000000000000000000000000000000000000000 PUSH1 0x0 MSTORE PUSH1 0x22 PUSH1 0x4 MSTORE PUSH1 0x24 PUSH1 0x0 REVERT JUMPDEST PUSH1 0x0 PUSH1 0x2 DUP3 DIV SWAP1 POP PUSH1 0x1 DUP3 AND DUP1 PUSH2 0x718 JUMPI PUSH1 0x7F DUP3 AND SWAP2 POP JUMPDEST PUSH1 0x20 DUP3 LT DUP2 SUB PUSH2 0x72B JUMPI PUSH2 0x72A PUSH2 0x6D1 JUMP JUMPDEST JUMPDEST POP SWAP2 SWAP1 POP JUMP JUMPDEST PUSH1 0x0 DUP2 SWAP1 POP SWAP3 SWAP2 POP POP JUMP JUMPDEST PUSH1 0x0 PUSH2 0x747 DUP3 PUSH2 0x41C JUMP JUMPDEST PUSH2 0x751 DUP2 DUP6 PUSH2 0x731 JUMP JUMPDEST SWAP4 POP PUSH2 0x761 DUP2 DUP6 PUSH1 0x20 DUP7 ADD PUSH2 0x438 JUMP JUMPDEST DUP1 DUP5 ADD SWAP2 POP POP SWAP3 SWAP2 POP POP JUMP JUMPDEST PUSH1 0x0 PUSH2 0x779 DUP3 DUP5 PUSH2 0x73C JUMP JUMPDEST SWAP2 POP DUP2 SWAP1 POP SWAP3 SWAP2 POP POP JUMP JUMPDEST PUSH32 0x4E487B7100000000000000000000000000000000000000000000000000000000 PUSH1 0x0 MSTORE PUSH1 0x11 PUSH1 0x4 MSTORE PUSH1 0x24 PUSH1 0x0 REVERT JUMPDEST PUSH1 0x0 PUSH2 0x7BE DUP3 PUSH2 0x3AA JUMP JUMPDEST SWAP2 POP PUSH2 0x7C9 DUP4 PUSH2 0x3AA JUMP JUMPDEST SWAP3 POP DUP3 DUP3 ADD SWAP1 POP DUP1 DUP3 GT ISZERO PUSH2 0x7E1 JUMPI PUSH2 0x7E0 PUSH2 0x784 JUMP JUMPDEST JUMPDEST SWAP3 SWAP2 POP POP JUMP JUMPDEST PUSH1 0x0 DUP2 SWAP1 POP DUP2 PUSH1 0x0 MSTORE PUSH1 0x20 PUSH1 0x0 KECCAK256 SWAP1 POP SWAP2 SWAP1 POP JUMP JUMPDEST PUSH1 0x0 PUSH1 0x20 PUSH1 0x1F DUP4 ADD DIV SWAP1 POP SWAP2 SWAP1 POP JUMP JUMPDEST PUSH1 0x0 DUP3 DUP3 SHL SWAP1 POP SWAP3 SWAP2 POP POP JUMP JUMPDEST PUSH1 0x0 PUSH1 0x8 DUP4 MUL PUSH2 0x849 PUSH32 0xFFFFFFFFFFFFFFFFFFFFFFFFFFFFFFFFFFFFFFFFFFFFFFFFFFFFFFFFFFFFFFFF DUP3 PUSH2 0x80C JUMP JUMPDEST PUSH2 0x853 DUP7 DUP4 PUSH2 0x80C JUMP JUMPDEST SWAP6 POP DUP1 NOT DUP5 AND SWAP4 POP DUP1 DUP7 AND DUP5 OR SWAP3 POP POP POP SWAP4 SWAP3 POP POP POP JUMP JUMPDEST PUSH1 0x0 DUP2 SWAP1 POP SWAP2 SWAP1 POP JUMP JUMPDEST PUSH1 0x0 PUSH2 0x890 PUSH2 0x88B PUSH2 0x886 DUP5 PUSH2 0x3AA JUMP JUMPDEST PUSH2 0x86B JUMP JUMPDEST PUSH2 0x3AA JUMP JUMPDEST SWAP1 POP SWAP2 SWAP1 POP JUMP JUMPDEST PUSH1 0x0 DUP2 SWAP1 POP SWAP2 SWAP1 POP JUMP JUMPDEST PUSH2 0x8AA DUP4 PUSH2 0x875 JUMP JUMPDEST PUSH2 0x8BE PUSH2 0x8B6 DUP3 PUSH2 0x897 JUMP JUMPDEST DUP5 DUP5 SLOAD PUSH2 0x819 JUMP JUMPDEST DUP3 SSTORE POP POP POP POP JUMP JUMPDEST PUSH1 0x0 SWAP1 JUMP JUMPDEST PUSH2 0x8D3 PUSH2 0x8C6 JUMP JUMPDEST PUSH2 0x8DE DUP2 DUP5 DUP5 PUSH2 0x8A1 JUMP JUMPDEST POP POP POP JUMP JUMPDEST JUMPDEST DUP2 DUP2 LT ISZERO PUSH2 0x902 JUMPI PUSH2 0x8F7 PUSH1 0x0 DUP3 PUSH2 0x8CB JUMP JUMPDEST PUSH1 0x1 DUP2 ADD SWAP1 POP PUSH2 0x8E4 JUMP JUMPDEST POP POP JUMP JUMPDEST PUSH1 0x1F DUP3 GT ISZERO PUSH2 0x947 JUMPI PUSH2 0x918 DUP2 PUSH2 0x7E7 JUMP JUMPDEST PUSH2 0x921 DUP5 PUSH2 0x7FC JUMP JUMPDEST DUP2 ADD PUSH1 0x20 DUP6 LT ISZERO PUSH2 0x930 JUMPI DUP2 SWAP1 POP JUMPDEST PUSH2 0x944 PUSH2 0x93C DUP6 PUSH2 0x7FC JUMP JUMPDEST DUP4 ADD DUP3 PUSH2 0x8E3 JUMP JUMPDEST POP POP JUMPDEST POP POP POP JUMP JUMPDEST PUSH1 0x0 DUP3 DUP3 SHR SWAP1 POP SWAP3 SWAP2 POP POP JUMP JUMPDEST PUSH1 0x0 PUSH2 0x96A PUSH1 0x0 NOT DUP5 PUSH1 0x8 MUL PUSH2 0x94C JUMP JUMPDEST NOT DUP1 DUP4 AND SWAP2 POP POP SWAP3 SWAP2 POP POP JUMP JUMPDEST PUSH1 0x0 PUSH2 0x983 DUP4 DUP4 PUSH2 0x959 JUMP JUMPDEST SWAP2 POP DUP3 PUSH1 0x2 MUL DUP3 OR SWAP1 POP SWAP3 SWAP2 POP POP JUMP JUMPDEST PUSH2 0x99C DUP3 PUSH2 0x41C JUMP JUMPDEST PUSH8 0xFFFFFFFFFFFFFFFF DUP2 GT ISZERO PUSH2 0x9B5 JUMPI PUSH2 0x9B4 PUSH2 0x4E6 JUMP JUMPDEST JUMPDEST PUSH2 0x9BF DUP3 SLOAD PUSH2 0x700 JUMP JUMPDEST PUSH2 0x9CA DUP3 DUP3 DUP6 PUSH2 0x906 JUMP JUMPDEST PUSH1 0x0 PUSH1 0x20 SWAP1 POP PUSH1 0x1F DUP4 GT PUSH1 0x1 DUP2 EQ PUSH2 0x9FD JUMPI PUSH1 0x0 DUP5 ISZERO PUSH2 0x9EB JUMPI DUP3 DUP8 ADD MLOAD SWAP1 POP JUMPDEST PUSH2 0x9F5 DUP6 DUP3 PUSH2 0x977 JUMP JUMPDEST DUP7 SSTORE POP PUSH2 0xA5D JUMP JUMPDEST PUSH1 0x1F NOT DUP5 AND PUSH2 0xA0B DUP7 PUSH2 0x7E7 JUMP JUMPDEST PUSH1 0x0 JUMPDEST DUP3 DUP2 LT ISZERO PUSH2 0xA33 JUMPI DUP5 DUP10 ADD MLOAD DUP3 SSTORE PUSH1 0x1 DUP3 ADD SWAP2 POP PUSH1 0x20 DUP6 ADD SWAP5 POP PUSH1 0x20 DUP2 ADD SWAP1 POP PUSH2 0xA0E JUMP JUMPDEST DUP7 DUP4 LT ISZERO PUSH2 0xA50 JUMPI DUP5 DUP10 ADD MLOAD PUSH2 0xA4C PUSH1 0x1F DUP10 AND DUP3 PUSH2 0x959 JUMP JUMPDEST DUP4 SSTORE POP JUMPDEST PUSH1 0x1 PUSH1 0x2 DUP9 MUL ADD DUP9 SSTORE POP POP POP JUMPDEST POP POP POP POP POP POP JUMP INVALID LOG2 PUSH5 0x6970667358 0x22 SLT KECCAK256 0xCF 0xA7 SWAP13 0xFC MSIZE 0xDB POP 0xC6 DUP16 CALLVALUE PUSH3 0xC0733A PUSH17 0x6202F77079D8A0EB643272A61117589686 PUSH5 0x736F6C6343 STOP ADDMOD SLT STOP CALLER "
				},
				"gasEstimates": {
					"creation": {
						"codeDepositCost": "543000",
						"executionCost": "575",
						"totalCost": "543575"
					},
					"external": {
						"Number(string)": "infinite",
						"addperson(string,uint256)": "infinite",
						"favouriteNumber()": "2429",
						"getNumByName(string)": "infinite",
						"person(uint256)": "infinite",
						"retrieve()": "2504",
						"setNames(string,uint256)": "infinite",
						"store(uint256)": "infinite"
					}
				},
				"methodIdentifiers": {
					"Number(string)": "282af2d7",
					"addperson(string,uint256)": "e1b3202a",
					"favouriteNumber()": "43ede4ae",
					"getNumByName(string)": "e80521e1",
					"person(uint256)": "092a1820",
					"retrieve()": "2e64cec1",
					"setNames(string,uint256)": "2595d8aa",
					"store(uint256)": "6057361d"
				}
			},
			"storageLayout": {
				"storage": [
					{
						"astId": 5,
						"contract": "contracts/Inheritance.sol:Inheritance",
						"label": "Number",
						"offset": 0,
						"slot": "0",
						"type": "t_mapping(t_string_memory_ptr,t_uint256)"
					},
					{
						"astId": 14,
						"contract": "contracts/Inheritance.sol:Inheritance",
						"label": "person",
						"offset": 0,
						"slot": "1",
						"type": "t_array(t_struct(People)10_storage)dyn_storage"
					},
					{
						"astId": 16,
						"contract": "contracts/Inheritance.sol:Inheritance",
						"label": "favouriteNumber",
						"offset": 0,
						"slot": "2",
						"type": "t_uint256"
					},
					{
						"astId": 67,
						"contract": "contracts/Inheritance.sol:Inheritance",
						"label": "Persons",
						"offset": 0,
						"slot": "3",
						"type": "t_mapping(t_string_memory_ptr,t_uint256)"
					}
				],
				"types": {
					"t_array(t_struct(People)10_storage)dyn_storage": {
						"base": "t_struct(People)10_storage",
						"encoding": "dynamic_array",
						"label": "struct simpleStorage.People[]",
						"numberOfBytes": "32"
					},
					"t_mapping(t_string_memory_ptr,t_uint256)": {
						"encoding": "mapping",
						"key": "t_string_memory_ptr",
						"label": "mapping(string => uint256)",
						"numberOfBytes": "32",
						"value": "t_uint256"
					},
					"t_string_memory_ptr": {
						"encoding": "bytes",
						"label": "string",
						"numberOfBytes": "32"
					},
					"t_string_storage": {
						"encoding": "bytes",
						"label": "string",
						"numberOfBytes": "32"
					},
					"t_struct(People)10_storage": {
						"encoding": "inplace",
						"label": "struct simpleStorage.People",
						"members": [
							{
								"astId": 7,
								"contract": "contracts/Inheritance.sol:Inheritance",
								"label": "favouriteNumber",
								"offset": 0,
								"slot": "0",
								"type": "t_uint256"
							},
							{
								"astId": 9,
								"contract": "contracts/Inheritance.sol:Inheritance",
								"label": "Name",
								"offset": 0,
								"slot": "1",
								"type": "t_string_storage"
							}
						],
						"numberOfBytes": "64"
					},
					"t_uint256": {
						"encoding": "inplace",
						"label": "uint256",
						"numberOfBytes": "32"
					}
				}
			},
			"userdoc": {
				"kind": "user",
				"methods": {},
				"version": 1
			}
		}
	}
}