{
	"data": {
		"bytecode": {
			"linkReferences": {},
			"object": "608060405234801561001057600080fd5b50610120806100206000396000f3fe608060405260043610601c5760003560e01c8063cf41d6f8146021575b600080fd5b60276029565b005b670de0b6b3a76400003410156071576040517f08c379a000000000000000000000000000000000000000000000000000000000815260040160689060cc565b60405180910390fd5b565b600082825260208201905092915050565b7f4469646e27742053656e6420456e6f7567682046756e64210000000000000000600082015250565b600060b86018836073565b915060c1826084565b602082019050919050565b6000602082019050818103600083015260e38160ad565b905091905056fea264697066735822122065ae0f0265ea3509ed1ea2b72b5eaac4bf6e20d223dd86b96dacdce3c3a7773164736f6c63430008120033",
			"opcodes": "PUSH1 0x80 PUSH1 0x40 MSTORE CALLVALUE DUP1 ISZERO PUSH2 0x10 JUMPI PUSH1 0x0 DUP1 REVERT JUMPDEST POP PUSH2 0x120 DUP1 PUSH2 0x20 PUSH1 0x0 CODECOPY PUSH1 0x0 RETURN INVALID PUSH1 0x80 PUSH1 0x40 MSTORE PUSH1 0x4 CALLDATASIZE LT PUSH1 0x1C JUMPI PUSH1 0x0 CALLDATALOAD PUSH1 0xE0 SHR DUP1 PUSH4 0xCF41D6F8 EQ PUSH1 0x21 JUMPI JUMPDEST PUSH1 0x0 DUP1 REVERT JUMPDEST PUSH1 0x27 PUSH1 0x29 JUMP JUMPDEST STOP JUMPDEST PUSH8 0xDE0B6B3A7640000 CALLVALUE LT ISZERO PUSH1 0x71 JUMPI PUSH1 0x40 MLOAD PUSH32 0x8C379A000000000000000000000000000000000000000000000000000000000 DUP2 MSTORE PUSH1 0x4 ADD PUSH1 0x68 SWAP1 PUSH1 0xCC JUMP JUMPDEST PUSH1 0x40 MLOAD DUP1 SWAP2 SUB SWAP1 REVERT JUMPDEST JUMP JUMPDEST PUSH1 0x0 DUP3 DUP3 MSTORE PUSH1 0x20 DUP3 ADD SWAP1 POP SWAP3 SWAP2 POP POP JUMP JUMPDEST PUSH32 0x4469646E27742053656E6420456E6F7567682046756E64210000000000000000 PUSH1 0x0 DUP3 ADD MSTORE POP JUMP JUMPDEST PUSH1 0x0 PUSH1 0xB8 PUSH1 0x18 DUP4 PUSH1 0x73 JUMP JUMPDEST SWAP2 POP PUSH1 0xC1 DUP3 PUSH1 0x84 JUMP JUMPDEST PUSH1 0x20 DUP3 ADD SWAP1 POP SWAP2 SWAP1 POP JUMP JUMPDEST PUSH1 0x0 PUSH1 0x20 DUP3 ADD SWAP1 POP DUP2 DUP2 SUB PUSH1 0x0 DUP4 ADD MSTORE PUSH1 0xE3 DUP2 PUSH1 0xAD JUMP JUMPDEST SWAP1 POP SWAP2 SWAP1 POP JUMP INVALID LOG2 PUSH5 0x6970667358 0x22 SLT KECCAK256 PUSH6 0xAE0F0265EA35 MULMOD 0xED 0x1E LOG2 0xB7 0x2B 0x5E 0xAA 0xC4 0xBF PUSH15 0x20D223DD86B96DACDCE3C3A7773164 PUSH20 0x6F6C634300081200330000000000000000000000 "
		},
		"gasEstimates": {
			"creation": {
				"codeDepositCost": "57600",
				"executionCost": "105",
				"totalCost": "57705"
			},
			"external": {
				"getPaid()": "412"
			}
		},
		"methodIdentifiers": {
			"getPaid()": "cf41d6f8"
		}
	},
	"abi": [
		{
			"inputs": [],
			"name": "getPaid",
			"outputs": [],
			"stateMutability": "payable",
			"type": "function"
		}
	]
}